:020000040800F2
:100000009054002045010008E1210008F91700087C
:10001000DD210008450A00089D3C000800000000A2
:10002000000000000000000000000000B1300008E7
:10003000BF140008000000008D270008C934000824
:100040005F0100085F0100085F0100085F01000810
:100050005F0100085F0100085F0100085F01000800
:100060005F0100085F0100085F0100085F010008F0
:100070005F0100085F0100085F0100085F010008E0
:100080005F0100085F0100085F0100085F010008D0
:100090005F0100085F0100085F0100085F010008C0
:1000A0005F0100085F0100085F0100085F010008B0
:1000B000313500085F0100085F0100085F0100089A
:1000C0005F0100085F0100085F0100085F01000890
:1000D0005F010008D53800085F0100085F010008D3
:1000E0005F0100085F0100085F0100085F01000870
:1000F0005F0100085F0100085F0100085F01000860
:100100005F0100085F010008813500085F010008F9
:100110005F0100085F0100085F0100085F0100083F
:100120005F0100085F010008411200085F0100083C
:10013000DFF80CD000F0DCFA004800472542000848
:10014000905400200648804706480047FEE7FEE737
:10015000FEE7FEE7FEE7FEE7FEE7FEE7FEE7FEE777
:10016000D134000831010008D2B201E000F8012BBF
:10017000491EFBD270470022F6E710B513460A4627
:1001800004461946FFF7F0FF204610BD2DE9FE4F4B
:10019000804681EA0300C00F0C46009021F0004128
:1001A00023F00045B8EB0200A94105D240462146A4
:1001B00090461C460B46024623F00040104347D0B1
:1001C000270DC7F30A00C3F30A510290401A0190A9
:1001D00040286BDAC3F3130040F4801B009892466A
:1001E00020B10023D2EB030A63EB0B0B01985946B5
:1001F000C0F14002504600F0EDF906460D4650466B
:100200005946019A00F005FA10EB080061410024FC
:1002100087EA115284EAE7731A4340D0009A62B326
:10022000019A012A4FEA075215DC001B61EB02011B
:100230004FF0004202EA0752CDE90042001C41F5AE
:10024000801132462B4600F005FA03B0BDE8F08F6E
:1002500040462146F9E7001B61EB0201001C41F515
:10026000801300185B412018A2F5001747EB03012B
:1002700040EAD570B6196D4111E06D084FEA3606B7
:1002800045EAC0754FEA0752001B61EB0201001CF2
:1002900041F5801149084FEA3000001951413246BA
:1002A0002B4603B0BDE8F04F00F0C5B9009801221D
:1002B00040000023D0EB020263EBE073009821467C
:1002C0004FEAE074B8EB000061EB0401E9E783F06A
:1002D00000435BE781F0004158E72DE9FE4F81EADA
:1002E000030404F0004421F0004100944FF0000B9F
:1002F00023F0004350EA01045ED052EA03045BD0CD
:10030000C3F30A54C1F30A552C44A4F2F334019404
:10031000A0FB0254C1F3130141F48011C3F3130392
:1003200043F4801301FB024400FB034E840A970A46
:1003300044EA815447EA8357A4FB076802958D0A73
:1003400005FB07854FEA932C04FB0C542705029DFF
:100350004FEA065847EA1637B5EB08056EEB070C6F
:10036000870E920E47EA811742EA8312A7FB020129
:10037000B6EB0B0164EB00042B0D43EA0C335E1863
:1003800044EB1C50DA465146E7FB0201C5F3130467
:100390004FEA0B3343EA14534FEA0432019C43EA19
:1003A0000603A4F10C040294009CCDE900B400F013
:1003B00051F903B0BDE8F08F00200146F9E72DE9BF
:1003C000F04D81EA030404F0004B21F0004514468F
:1003D0004FF0000A23F0004150EA050220D054EA11
:1003E00001021DD0C5F30A570246C5F31303C1F33A
:1003F0001300C1F30A5640F4801543F48013A7EBB1
:100400000608101BD64608F2FD3873EB050002D330
:1004100008F1010801E092185B41B8F1000F03DA1E
:1004200000200146BDE8F08D00204FF48011064603
:1004300084460EE0171B73EB050705D3121B63EB15
:10044000050306434CEA010C49084FEA30009218B4
:100450005B4150EA0107EDD152EA030012D082EA73
:10046000040083EA0501084305D0101BAB4106D206
:100470000122002306E000224FF0004302E06FF06B
:10048000010253101AEB06004CEB085110EB0A0066
:1004900041EB0B01BDE8F04D00F0CDB80EB5C10F3A
:1004A00080EAE0700844CA07002140F233438DE837
:1004B0000E000A460B4600F0CDF803B000BD0EB5A5
:1004C00040F2334102910021CDE900110A460B466A
:1004D00000F0C0F803B000BD70B5C1F30A5201F0DE
:1004E00000450024C1F3130140F2FF3341F48011B1
:1004F0009A4201DA002070BD40F233439A42A2F2E0
:10050000334203DC524200F074F800E090402C4388
:10051000F1D0404270BDC1F30A5210B5C1F31301CE
:1005200040F2FF3341F480119A4201DA002010BDFD
:1005300040F233439A42A2F2334203DC524200F0CB
:1005400058F810BD904010BD30B5041E71F1000484
:1005500004DB4FF00044404264EB0101141E73F1D0
:10056000000405DB1C464FF00043524263EB0403DA
:100570008B4208BF824230BD30B5041E71F10004C9
:1005800004DB4FF00044404264EB0101141E73F1A0
:10059000000405DB1C464FF00043524263EB0403AA
:1005A000994208BF904230BD30B50B46014600204D
:1005B0002022012409E021FA02F59D4205D303FA25
:1005C00002F5491B04FA02F52844151EA2F10102A6
:1005D000F1DC30BD202A04DB203A00FA02F10020D1
:1005E00070479140C2F1200320FA03F31943904071
:1005F0007047202A04DB203A21FA02F000217047DC
:1006000021FA02F3D040C2F120029140084319467A
:100610007047202A06DBCB17203A41FA02F043EA62
:10062000E07306E041FA02F3D040C2F120029140AB
:1006300008431946704710B5141E73F1000408DA18
:10064000401C41F1000192185B411A4301D120F096
:10065000010010BD2DE9F04D92469B4611B1B1FA53
:1006600081F202E0B0FA80F220329046FFF7B2FF4A
:1006700004460F4640EA0A0041EA0B0153465A4637
:10068000084313D0114653EA010019D0C8F14002C3
:100690005046FFF7AEFF05460E46504659464246C5
:1006A000FFF798FF084305D0012004E020463946B3
:1006B000BDE8F08D0020054346EAE0762C43374341
:1006C0000A986305E40AA0EB08000022FD0A44EA48
:1006D00047540A3002D500200146E9E70105101908
:1006E0006941DDE9084500196941BDE8F04DA2E71F
:1006F000064C074D06E0E06840F0010394E807006F
:1007000098471034AC42F6D3FFF716FDD04C0008E2
:10071000F04C000870B58C1810F8015B15F0070359
:1007200001D110F8013B2A1106D110F8012B03E08A
:1007300010F8016B01F8016B5B1EF9D12B0705D492
:100740000023521E0DD401F8013BFAE710F8013BDB
:10075000CB1A921C03E013F8015B01F8015B521EF7
:10076000F9D5A142D8D3002070BD21B1826842F0F2
:100770000102826003E0826822F001028260704719
:1007800021B1826842F48072826003E0826822F4C0
:1007900080728260704721B1826842F48012826068
:1007A00003E0826822F480128260704701460020D4
:1007B0008A6802F004020AB1012000E000207047BC
:1007C000014600208A6802F008020AB1012000E018
:1007D0000020704730B502460020002350680F4CBF
:1007E00020400D790C6844EA05242043506090684D
:1007F0000B4C2040D1E902542C434D7944EA450486
:1008000020439060D06A20F470000C7C641EE4B237
:10081000234340EA0350D06230BD0000FFFEF0FFEA
:10082000FDF7F1FFF0B504460D4600200021092D2B
:1008300011DDE068A5F10A0606EB4607072606FA71
:1008400007F18843A5F10A0606EB460603FA06F10E
:100850000843E0600CE0206905EB4507072606FA2F
:1008600007F1884305EB450603FA06F108432061CA
:10087000072A0FDA606B561E06EB86071F2606FA5C
:1008800007F18843561E06EB860605FA06F1084373
:10089000606322E00D2A0FDA206BD61F06EB860775
:1008A0001F2606FA07F18843D61F06EB860605FACF
:1008B00006F10843206310E0E06AA2F10D0606EBA2
:1008C00086071F2606FA07F18843A2F10D0606EBFC
:1008D000860605FA06F10843E062F0BD816841F042
:1008E000080181607047816841F0040181607047B0
:1008F00010B504462146002000F092FC10BD000017
:100900002DE9FF4F8DB081468A46934600210F4660
:1009100088464948CDE90A100891099100204649C6
:10092000CDE906010546064600214348CDE90410FD
:10093000002457E009EBC40103C9CDE90201DDE958
:100940000A23FFF701FE04D209EBC40003C8CDE976
:100950000A0109EBC40103C93A464346CDE9020145
:10096000FFF70AFE03D209EBC400D0E900780AEBD6
:10097000C40103C9CDE90201DDE90623FFF7E4FD67
:1009800004D20AEBC40003C8CDE906010AEBC40196
:1009900003C9CDE90201DDE90823FFF7EDFD04D22B
:1009A0000AEBC40003C8CDE908010BEBC40103C97D
:1009B000CDE90201DDE90423FFF7C6FD04D20BEB0C
:1009C000C40003C8CDE904010BEBC40103C92A46E6
:1009D0003346CDE90201FFF7CFFD02D20BEBC40095
:1009E00060C8641C10988442A4DB38464146DDE9A7
:1009F0000A23FFF76CFC1A9A03C2DDE90623DDE93E
:100A00000801FFF764FC1B9A03C228463146DDE962
:100A10000423FFF75CFC0022084BCDE90001FFF73F
:100A2000CEFC2A463346CDE90201FFF753FC044AC7
:100A300003C211B0BDE8F08F00FEAF4000000840D7
:100A4000C001002000BFFEE710B50246012000E013
:100A500050430B1EA1F10104E1B2F9D110BD000019
:100A600000200149087070470D0200200020014954
:100A7000087070470C02002000B587B04FF40040AA
:100A800001F0ECFE0121480201F024FF01210420C5
:100A900001F020FF0E20ADF8180000208DF81B009B
:100AA00006A9244800F0F0FD0020019001208DF8F7
:100AB000080000208DF809004FF40020039000206A
:100AC000049003208DF8140001A91B48FFF782FE53
:100AD0000723012211461848FFF7A4FE072302222C
:100AE00011461548FFF79EFE0723032211461248C0
:100AF000FFF798FE01211048FFF742FE01210E4842
:100B0000FFF749FE01210C48FFF72FFE0A48FFF7C7
:100B1000E5FE00BF0848FFF753FE0028FAD106485B
:100B2000FFF7E1FE00BF0448FFF740FE0028FAD1BE
:100B300007B000BD000801400024014008B50121B4
:100B4000042001F0C7FE2020ADF8000003208DF83E
:100B5000020010208DF8030069460D4800F094FD56
:100B6000012220210A4800F030FE4020ADF80000AC
:100B700003208DF8020010208DF803006946044818
:100B800000F082FD00224021014800F01EFE08BD59
:100B90000008014000B585B00121042001F09AFE53
:100BA0000121480701F076FE1020ADF81000032067
:100BB0008DF8120000208DF8130004A90D4800F0F4
:100BC00063FD2C2000900020019002900390694664
:100BD00000F00CFB0121002000F0F2FA4FF4E1716B
:100BE000002000F01DFB0121002000F0D5FA05B027
:100BF00000BD00000008014000B58BB0012108468F
:100C000001F038FE114800F055FB114800901148E2
:100C10000190002002900320039000200490802087
:100C20000590400006908000079020200890C001A9
:100C3000099000200A906946044800F000FC012158
:100C4000024800F02BFB0BB000BD00000800024082
:100C50004C2401402402002003B58DB00121022064
:100C600001F008FE1A4800F025FB1A4802900D9882
:100C700003900E980590102004900020069080208C
:100C80000790400008908000099020200A90000200
:100C90000B9000200C9002A90D4800F0D0FB3A20E8
:100CA0008DF8040000208DF805008DF80600012065
:100CB0008DF8070001A801F0A1FA012202210448E1
:100CC00000F0B4FB0121024800F0E8FA0FB000BDCB
:100CD000300402400874004008B50121082001F0EA
:100CE000F9FD0120ADF8000003208DF80200482036
:100CF0008DF8030069460B4800F0C6FC0220ADF8F1
:100D0000000003208DF8020010208DF803006946D2
:100D1000044800F0B9FC01220221024800F055FD10
:100D200008BD0000000C014008B50121102001F0B1
:100D3000D1FD1020ADF8000003208DF80200102036
:100D40008DF8030069460D4800F09EFC0122102139
:100D50000A4800F03AFD2020ADF8000003208DF88D
:100D6000020010208DF803006946044800F08CFC56
:100D700000222021014800F028FD08BD001001409C
:100D800010B54FF4A06001F071FA10BD08B5012153
:100D9000082001F09FFD0121102001F09BFD4FF480
:100DA0000050ADF8000010208DF8030003208DF8EE
:100DB00002006946294800F067FC4FF400512748BB
:100DC00000F001FD4FF40040ADF8000010208DF858
:100DD000030003208DF802006946204800F054FC0F
:100DE0004FF400411D4800F0EEFC4FF48040ADF898
:100DF000000010208DF8030003208DF802006946E2
:100E0000164800F041FC4FF48041144800F0DBFC30
:100E10004FF48050ADF8000010208DF8030003203F
:100E20008DF8020069460D4800F02EFC4FF4805109
:100E30000A4800F0C8FC0820ADF8000010208DF82A
:100E4000030003208DF802006946054800F01CFCF1
:100E50000821034800F0B7FC08BD0000000C014069
:100E60000010014010B50021AE2001F03BFB002135
:100E7000D52001F037FB0021502001F033FB002189
:100E8000A82001F02FFB00213F2001F02BFB0021C7
:100E9000D32001F027FB0021084601F023FB0021AD
:100EA000402001F01FFB00218D2001F01BFB0021E1
:100EB000142001F017FB0021202001F013FB00217A
:100EC000022001F00FFB0021A12001F00BFB00210B
:100ED000C02001F007FB0021DA2001F003FB002114
:100EE000122001F0FFFA0021812001F0FBFA00211D
:100EF000EF2001F0F7FA0021D92001F0F3FA0021E8
:100F0000F12001F0EFFA0021DB2001F0EBFA0021E3
:100F1000302001F0E7FA0021A42001F0E3FA0021DB
:100F2000A62001F0DFFA0021AF2001F0DBFA10BDAE
:100F300010B501F0EFFC4FF4803001F0ADFD01F091
:100F400009FE0446012C24D1102000F083FB02206E
:100F500000F08EFB002001F093FD002001F0CEFD9B
:100F6000A00201F0BFFD4FF4E011200401F0D8FD14
:100F7000012001F0CFFD00BF392001F05BFD00280A
:100F8000FAD0022001F0DAFD00BF01F071FD08285F
:100F9000FBD110BD7FB505460C460121084601F086
:100FA00079FCADF80850ADF804400020ADF80A0017
:100FB000ADF8060001A94FF0804002F02DFC01229F
:100FC0001146900702F015FC1C208DF8000000204F
:100FD0008DF8010003208DF8020001208DF8030038
:100FE000684601F00BF90121880702F0F0FA7FBD95
:100FF0003EB505460C460121022001F04BFCADF840
:101000000450ADF800400020ADF80600ADF8020035
:101010006946064802F000FC2021044802F0F2FB79
:101020000121024802F0D3FA3EBD00000004004056
:101030003EB505460C460121042001F02BFC0C486E
:1010400002F0D2FAADF80450ADF800400020ADF83F
:101050000600ADF802006946054802F0DDFB2021DC
:10106000034802F0CFFB0121014802F0B0FA3EBD77
:10107000000800407FB505460C460121082001F01C
:1010800009FCADF80850ADF804400020ADF80A00A6
:10109000ADF8060001A90E4802F0BEFB0122114680
:1010A0000B4802F0A6FB32208DF8000000208DF8DE
:1010B000010003208DF8020001208DF8030068462E
:1010C00001F09CF80121024802F081FA7FBD000086
:1010D000000C004010B586B004460121880301F0E1
:1010E000F9FB0121042001F0F5FB4FF40070ADF88D
:1010F000140018208DF8170003208DF8160005A99C
:10110000224800F0C1FA4FF48060ADF814000420CA
:101110008DF8170005A91D4800F0B6FA01A802F0E5
:101120001AFD01940020ADF80800ADF80A00ADF8F2
:101130000C000C20ADF80E000020ADF8100001A945
:10114000134802F093FC25208DF8000001208DF853
:1011500001008DF802008DF80300684601F04EF89A
:10116000012240F225510A4802F05BFC012240F2C4
:101170002771074802F055FC0121054802F00EFCDA
:1011800000200449087006B010BD000000080140AE
:10119000003801401802002039B1084A12680123C2
:1011A00083401A43054B1A6006E0044A1268012383
:1011B00083409A43014B1A6070470000007400405E
:1011C00041B1094A12684FF4805383401A43064BD9
:1011D0001A6007E0044A12684FF4805383409A4330
:1011E000014B1A60704700000074004030B50022C7
:1011F00000230A4C226840F6FE748440A243D1E9E1
:1012000000452C438D682C43CD6844EA050303FA5E
:1012100000F42243014C226030BD00000074004005
:1012200008B500220092054A009200F10802009BD6
:101230001A440092009A116008BD0000007400403A
:1012400010B50B4800F0DCF880B13A2000F01F0226
:1012500001219140074A430942F8231000BF064884
:1012600000F00EF8054803C8FFF7F6FC10BD0000BB
:101270000002001080E200E0000100101C020020CB
:1012800000F0805111B10349086001E00249486053
:1012900070470000040402400000024021B10268CF
:1012A00042F00102026004E002684FF6FE731A4049
:1012B0000260704701684FF6FE7211400160002124
:1012C000016041608160C1604B49884208D14A4950
:1012D0000839496841F00F01474A083A51608AE0ED
:1012E00045491431884208D143490839496841F0D9
:1012F000F001414A083A51607DE03F492831884277
:1013000008D13D490839496841F470613A4A083AC0
:10131000516070E038493C31884208D1364908397B
:10132000496841F47041344A083A516063E03249F7
:101330005031884208D130490839496841F4702158
:101340002D4A083A516056E02B496431884208D151
:1013500029490839496841F47001274A083A51601F
:1013600049E025497831884208D12349083949683C
:1013700041F07061204A083A51603CE01F498842C0
:1013800006D1011F096841F00F01021F116032E010
:101390001A491431884208D11849091F096841F0D7
:1013A000F001164A121F116025E0144928318842C5
:1013B00008D11249091F096841F470610F4A121FD0
:1013C000116018E00D493C31884208D10B49091FD2
:1013D000096841F47041094A121F11600BE0074986
:1013E0005031884207D10549091F096841F470212D
:1013F000024A121F116070470800024008040240B0
:1014000001460020002201F0805313B1054B1A68F9
:1014100001E0054B1A6802EA01030BB1012000E06C
:101420000020704700040240000002401AB1036827
:101430000B43036002E003688B430360704710B501
:101440000022026847F6F0739A430C6A8B682343C4
:101450000C6923434C6923438C692343CC692343A0
:101460004C6A23438C6A23431A430260CB6843606F
:101470000B6883604B68C36010BD30B50346002025
:1014800016E0B3F900509C68645D0C541C88641C21
:1014900024B21C80B3F90040B3F90450AC4201DB24
:1014A00000241C80441C20B2DC88641E24B2DC8032
:1014B000B3F90640002C01DD9042E2DB30BD7047FD
:1014C00001B504490098086000BF02480068002880
:1014D000FBD108BD400200202DE9F14F82B000BFD2
:1014E00000BF00BF00BF0298FEF7E9FF06463C4A76
:1014F00000F0FAFB804689463A4A4046494600F0E9
:101500007DF982468B46384A5046594600F072FAB9
:1015100004460D462046294601F050FECDE9000163
:10152000324ADDE9000113681268521C2F4E326006
:101530002F4A02EBC30203C230460068B0F5967F23
:1015400008DB0020314608602A4A4FF4967128488B
:1015500002F00EFB25480068012832DD23480068B0
:10156000B0F5957F2DDC21480068801E204901EBF5
:10157000C000D0E900611F480CC83046FEF7E4FF08
:101580001FD81A480068401E194901EBC000D0E975
:10159000006118480CC83046FEF7EEFF11D800F085
:1015A00025F9154908600968144A1268881AFEF777
:1015B00086FF0646124A02F06DFC0F4800680F498C
:1015C000086010480078302808D120462946FEF7E8
:1015D00083FF064631460CA002F06EFBBDE8FE8F8D
:1015E0006002002090020020780200209800002075
:1015F000A8020020A0000020AC000020A8000020CD
:10160000B0000020000000202564200070B50346D3
:10161000002016E00C5CB3F902609D68AC555C8854
:10162000641C24B25C80B3F90240B3F90450AC42AC
:1016300001DB00245C80441C20B2DC88641C24B2E2
:10164000DC80B3F90640B3F90450AC4201DA9042B1
:10165000E0DB70BD0549096821F01001034A116003
:1016600011460968014311607047000000200240E4
:1016700001460020034A106800F03800084310605B
:1016800070470000002002402DE9F041024600258D
:101690000026002000230024002791F803C00CF04E
:1016A0000F0591F803C00CF0100CBCF1000F03D033
:1016B00091F802C04CEA050591F800C0BCF1000F9A
:1016C00031D0146800202BE04FF0010C0CFA00F32D
:1016D000B1F800C00CEA03069E4220D183004FF00F
:1016E0000F0C0CFA03F7BC4305FA03FC4CEA0404A4
:1016F00091F803C0BCF1280F06D14FF0010C0CFA91
:1017000000FCC2F814C00AE091F803C0BCF1480F15
:1017100005D14FF0010C0CFA00FCC2F810C0401CBF
:101720000828D1D31460B1F800C0BCF1FF0F34DD3C
:10173000546800202EE000F1080C4FF0010808FA70
:101740000CF3B1F800C00CEA03069E4221D18300DD
:101750004FF00F0C0CFA03F7BC4305FA03FC4CEAFC
:10176000040491F803C0BCF1280F05D100F1080C66
:1017700008FA0CF8C2F8148091F803C0BCF1480FC5
:1017800007D100F1080C4FF0010808FA0CF8C2F874
:101790001080401C0828CED35460BDE8F08102467A
:1017A000002093680B400BB1012000E0002070473F
:1017B00002460020D3680B400BB1012000E000205E
:1017C000704741617047016170470AB1016100E0F3
:1017D0004161704701480078704700000D02002009
:1017E00001480078704700000C02002001480068A2
:1017F000704700001002002000BFFEE72DE9F04F07
:101800008BB004460D46924600BF4FF0000BDAE95C
:101810000401CDE904013648D0E904890B4640466D
:101820004946049AFEF759FDCDE908013048DAE946
:101830000283C16880684246CDE90201FEF74DFD92
:1018400022462B46CDE90401FEF744FDCDE9060111
:10185000DDE90823FEF73BFDCAE900012549DAE985
:101860000483D1E904014246CDE90401FEF735FDC8
:10187000CDE90801DAE90201CDE900011D48D0E90E
:1018800002890B4640464946009AFEF726FDCDE9FF
:1018900004011848DAE9008303C84246CDE9000193
:1018A000FEF71BFDCDE90201DDE90423FEF76EFC26
:1018B000CDE90601DDE90823FEF768FC06460F4680
:1018C0004FF0020B0BE0ABF101000AEBC000D0E9D6
:1018D00000100AEBCB02C2E90010ABF1010BBBF127
:1018E000000FF0DC304639460BB0BDE8F08F000049
:1018F00080000020680000202DE9F04F8BB00446E6
:101900000D46924600BF4FF0000BDAE90401CDE925
:1019100004013648D0E904890B4640464946049AFA
:10192000FEF7DBFCCDE908013048DAE90283C16843
:1019300080684246CDE90201FEF7CFFC22462B46E5
:10194000CDE90401FEF7C6FCCDE90601DDE9082377
:10195000FEF7BDFCCAE900012549DAE90483D1E9B3
:1019600004014246CDE90401FEF7B7FCCDE90801C8
:10197000DAE90201CDE900011D48D0E902890B46F0
:1019800040464946009AFEF7A8FCCDE904011848F4
:10199000DAE9008303C84246CDE90001FEF79DFC69
:1019A000CDE90201DDE90423FEF7F0FBCDE90601F4
:1019B000DDE90823FEF7EAFB06460F464FF0020B6F
:1019C0000BE0ABF101000AEBC000D0E900100AEB1C
:1019D000CB02C2E90010ABF1010BBBF1000FF0DC50
:1019E000304639460BB0BDE8F08F0000A001002062
:1019F000880100202DE9F04F8BB004460D46924639
:101A000000BF4FF0000BDAE90401CDE904013648CC
:101A1000D0E904890B4640464946049AFEF75DFC2E
:101A2000CDE908013048DAE90283C168806842469E
:101A3000CDE90201FEF751FC22462B46CDE9040117
:101A4000FEF748FCCDE90601DDE90823FEF73FFC7F
:101A5000CAE900012549DAE90483D1E904014246D3
:101A6000CDE90401FEF739FCCDE90801DAE902010C
:101A7000CDE900011D48D0E902890B4640464946A0
:101A8000009AFEF72AFCCDE904011848DAE9008340
:101A900003C84246CDE90001FEF71FFCCDE9020173
:101AA000DDE90423FEF772FBCDE90601DDE9082339
:101AB000FEF76CFB06460F464FF0020B0BE0ABF156
:101AC00001000AEBC000D0E900100AEBCB02C2E92A
:101AD0000010ABF1010BBBF1000FF0DC30463946D2
:101AE0000BB0BDE8F08F000050000020380000204F
:101AF0002DE9F04F8BB004460D46924600BF4FF0E3
:101B0000000BDAE90401CDE904013648D0E9048983
:101B10000B4640464946049AFEF7DFFBCDE9080133
:101B20003048DAE90283C16880684246CDE90201A3
:101B3000FEF7D3FB22462B46CDE90401FEF7CAFB94
:101B4000CDE90601DDE90823FEF7C1FBCAE9000182
:101B50002549DAE90483D1E904014246CDE90401CB
:101B6000FEF7BBFBCDE90801DAE90201CDE900018E
:101B70001D48D0E902890B4640464946009AFEF7C7
:101B8000ACFBCDE904011848DAE9008303C84246FA
:101B9000CDE90001FEF7A1FBCDE90201DDE9042357
:101BA000FEF7F4FACDE90601DDE90823FEF7EEFAC7
:101BB00006460F464FF0020B0BE0ABF101000AEBBB
:101BC000C000D0E900100AEBCB02C2E90010ABF173
:101BD000010BBBF1000FF0DC304639460BB0BDE81D
:101BE000F08F000000010020E80000202DE9F04FF8
:101BF0008BB004460D46924600BF4FF0000BDAE969
:101C00000401CDE904013648D0E904890B46404679
:101C10004946049AFEF761FBCDE908013048DAE94C
:101C20000283C16880684246CDE90201FEF755FB98
:101C300022462B46CDE90401FEF74CFBCDE9060117
:101C4000DDE90823FEF743FBCAE900012549DAE98B
:101C50000483D1E904014246CDE90401FEF73DFBCE
:101C6000CDE90801DAE90201CDE900011D48D0E91A
:101C700002890B4640464946009AFEF72EFBCDE905
:101C800004011848DAE9008303C84246CDE900019F
:101C9000FEF723FBCDE90201DDE90423FEF776FA26
:101CA000CDE90601DDE90823FEF770FA06460F4686
:101CB0004FF0020B0BE0ABF101000AEBC000D0E9E2
:101CC00000100AEBCB02C2E90010ABF1010BBBF133
:101CD000000FF0DC304639460BB0BDE8F08F000055
:101CE00070010020580100202DE9F04F8BB0044610
:101CF0000D46924600BF4FF0000BDAE90401CDE932
:101D000004013648D0E904890B4640464946049A06
:101D1000FEF7E3FACDE908013048DAE90283C16849
:101D200080684246CDE90201FEF7D7FA22462B46EB
:101D3000CDE90401FEF7CEFACDE90601DDE908237D
:101D4000FEF7C5FACAE900012549DAE90483D1E9B9
:101D500004014246CDE90401FEF7BFFACDE90801CE
:101D6000DAE90201CDE900011D48D0E902890B46FC
:101D700040464946009AFEF7B0FACDE904011848FA
:101D8000DAE9008303C84246CDE90001FEF7A5FA6F
:101D9000CDE90201DDE90423FEF7F8F9CDE90601FA
:101DA000DDE90823FEF7F2F906460F464FF0020B75
:101DB0000BE0ABF101000AEBC000D0E900100AEB28
:101DC000CB02C2E90010ABF1010BBBF1000FF0DC5C
:101DD000304639460BB0BDE8F08F000020000020EF
:101DE000080000202DE9F04F8BB004460D469246C6
:101DF00000BF4FF0000BDAE90401CDE904013648D9
:101E0000D0E904890B4640464946049AFEF765FA34
:101E1000CDE908013048DAE90283C16880684246AA
:101E2000CDE90201FEF759FA22462B46CDE904011D
:101E3000FEF750FACDE90601DDE90823FEF747FA7F
:101E4000CAE900012549DAE90483D1E904014246DF
:101E5000CDE90401FEF741FACDE90801DAE9020112
:101E6000CDE900011D48D0E902890B4640464946AC
:101E7000009AFEF732FACDE904011848DAE9008346
:101E800003C84246CDE90001FEF727FACDE9020179
:101E9000DDE90423FEF77AF9CDE90601DDE908233F
:101EA000FEF774F906460F464FF0020B0BE0ABF15C
:101EB00001000AEBC000D0E900100AEBCB02C2E936
:101EC0000010ABF1010BBBF1000FF0DC30463946DE
:101ED0000BB0BDE8F08F0000D0000020B80000205B
:101EE00010B5472140F2E730FFF782F8FEF7C4FD56
:101EF000FEF782FE10BD10B5FEF74CFE40F2CF217A
:101F000040F21F30FFF794F810BD000010B5FEF747
:101F1000E3FE18210E48FEF72EF918210D48FEF7B2
:101F20002AF918210C48FEF726F94FF416610B48E0
:101F3000FEF721F900200A4908600021094A1160D2
:101F4000516009490860094908600949086010BDE5
:101F5000600200207802002090020020A8020020E9
:101F600098000020A0000020A8000020AC00002065
:101F7000B000002010B501F0ABFA00F04DF800F011
:101F80001BF84FF4E13000F0D7F800F0C9F800F08A
:101F90000FF800F091F8FFF7AEFFFFF7A1FF00F098
:101FA0000FF8FFF7B3FF00F03BF800F06DF810BD3D
:101FB00010B5FEF7B9FE10BD10B5FEF7E1FE10BD7D
:101FC00010B5FEF7E3FE4FF480410948FFF7F9FB37
:101FD0000A20FFF775FA4FF480410548FFF7F3FB3D
:101FE0000A20FFF76DFAFEF73DFF00F049F910BD3A
:101FF000000C014030B50B460024048044808280F0
:10200000C4808360002104E0002485686C544C1C6B
:1020100021B29142F8DB30BD10B5FEF789FF10BD4B
:1020200010B518210F48FEF7A6F818210E48FEF744
:10203000A2F84FF4FA510D48FEF79DF800200C4924
:10204000086000210B4A116051600B4A1160516019
:102050000A4A106050600A4908600A4A10605060DD
:1020600010BD00002010002038100020501000206B
:10207000180100202001002028010020300100204C
:10208000380100204001002010B5FEF757FD18214F
:102090000548FEF770F818210448FEF76CF8F020A8
:1020A0000349088010BD0000B0320020C832002073
:1020B000F80100207047000030B5164800684FF462
:1020C0007A72B0FBF2F1B1F1807F01D301201DE003
:1020D00021F07F40401E4FF0E022506150170F2248
:1020E000002807DA13071D0E0B4B00F00F04241F06
:1020F0001D5503E013071C0E084B1C5400BF0020A5
:102100004FF0E022906107201061002008B100BF6D
:10211000FEE730BD4402002018ED00E000E400E0DE
:1021200010B5472140F2E730FEF734FF472140F277
:10213000E730FEF79FFF10BD10B5044600F004F82D
:102140002046FEF7C7FF10BD10B5002406E00020B2
:102150000949085509490855601C04B2642CF6DB8E
:10216000642205490648FFF745FF642203490548F4
:10217000FFF740FF10BD0000C84F00202C5000208A
:10218000B04F0020BC4F002070B5044611480088B5
:10219000401C1049088008460088A04219DB002036
:1021A000088010210C48FFF703FBC0F10100C5B205
:1021B0002A4610210848FFF708FB20210648FFF7B0
:1021C000F7FAC0F10100C5B22A4620210248FFF704
:1021D000FCFA70BD020000200010014000BFFEE7C5
:1021E0007047000000F01F0201219140024A43099C
:1021F00042F823107047000080E200E070B5002133
:1022000000230F22C47804B3154C246804F4E0645E
:10221000C4F5E064210AC1F10403CA40447804FA19
:1022200003F184781440214309010E4C0678A1552E
:10223000047804F01F050124AC4005786D11AD0051
:1022400005F1E025C5F8004109E0047804F01F0518
:102250000124AC40044D0678761145F8264070BD47
:102260000CED00E000E400E080E100E00249014301
:10227000024A1160704700000000FA050CED00E012
:1022800070B500240CE0002506E00020074901EBB2
:10229000C5010855681CC5B2802DF6DB601CC4B2B0
:1022A000082CF0DB00F038F870BD0000200C002096
:1022B000F0B5144600267F2801DC3F2900DDF0BD83
:1022C0000B46CF1701EB5777FF10C7F10707FAB29C
:1022D000CF1701EB5777FF10A1EBC707FDB2C5F190
:1022E00007070123BB40DEB24CB10A4B03EBC0032E
:1022F0009B5C3343074F07EBC007BB5408E0054B1B
:1023000003EBC0039B5CB343024F07EBC007BB5416
:1023100000BFD4E7200C002070B500241CE004F1BD
:10232000B001C8B2002100F0DDF80021084600F03D
:10233000D9F80021102000F0D5F8002508E0084960
:1023400001EBC501085D012100F0CCF8681CC5B2A5
:10235000802DF4DB601CC4B2082CE0DB70BD0000F3
:10236000200C00202DE9F05F80460C4615461E46E5
:10237000A346A5F12000C5B200273EE00C2E07D1F0
:1023800005EB45001F4901EB800010F8079004E0C1
:102390001D4800EB051010F807904FF0000A26E0EA
:1023A00009F0800028B1214640460A9AFFF780FFD5
:1023B00009E00A9808B9012000E000200246214601
:1023C0004046FFF775FF4FEA49604FEA1069601C0D
:1023D000C4B2A4EB0B00B04205D15C4608F1010089
:1023E00000F0FF0806E00AF1010000F0FF0ABAF170
:1023F000080FD5DB00BF781CC7B2B742BEDBBDE813
:10240000F09F00006C420008E04600082DE9FF4FF5
:1024100081B0074691461E460E9D4FF0000A0024EB
:1024200039E0301B401EC1B20A20FEF70DFBB9FB9C
:10243000F0F00A21B0FBF1F201FB1208BAF1000F33
:1024400016D1701EA04213DDB8F1000F0ED101208D
:10245000AB4605EBDB71491001FB04710090C8B27B
:102460002B4620220299FFF77DFF12E04FF0010A70
:102470000120AB4605EBDB71491001FB04710090B4
:10248000C8B208F13001CAB22B460299FFF76AFFC1
:1024900000BF601CC4B2B442C3DB05B0BDE8F08F1E
:1024A000F8B505460E46144618E07A2D03DD0025E2
:1024B00006F11000C6B23A2E04DD0020054606469D
:1024C000FFF7DEFE012000902278102331462846D7
:1024D000FFF748FF05F10800C5B2641C207800280A
:1024E000E3D1F8BD70B504460D4625B908211C4856
:1024F000FFF767F905E0012D03D108211848FFF720
:1025000062F94FF480511748FFF75BF900261BE092
:102510004FF400511348FFF754F904F0800028B13C
:102520004FF400410F48FFF74EF904E04FF400412B
:102530000C48FFF746F94FF400510A48FFF743F9FA
:102540006006040E701C06B2082EE1DB4FF48051C9
:102550000448FFF738F908210148FFF734F970BD46
:1025600000100140000C014008B529A200210846D6
:10257000FFF796FF27A200214020FFF791FF26A238
:1025800010210020FFF78CFF01212648FFF707F9F3
:10259000012812D1012202212248FFF716F922A2B6
:1025A00010215820FFF77CFF21A200212020FFF7F7
:1025B00077FF20A001F080FB28E0002202211948CB
:1025C000FFF703F91EA210215820FFF769FF1E48EC
:1025D0000068142812DB1C480068FA280EDC102062
:1025E000032300901848002102682020FFF70EFF07
:1025F0001548016815A001F05FFB07E00CA200215F
:102600002020FFF74DFF0BA001F056FB08BD000096
:1026100048523A0042504D004543475F4C454144C3
:102620003A000000000C01404E6F6F620000000095
:10263000457272005B5B312C4572725D5D0D0A0064
:10264000476F6F6400000000B00000205B5B312C1E
:1026500025645D5D0D0A000008B528A22021002038
:10266000FFF71EFF26A220214020FFF719FF25A219
:1026700030210020FFF714FF0022254B254903C914
:10268000FDF762FF06D30022234B224903C9FDF761
:1026900073FF0DD221A230215820FFF701FF21A2A4
:1026A00020210846FFF7FCFE1FA001F005FB23E0F8
:1026B00020A230215820FFF7F3FE204800680528AB
:1026C00012DB1E48006864280EDC102003230090F3
:1026D0001A48202102680846FFF798FE174801684B
:1026E00017A001F0E9FA07E00EA220210846FFF743
:1026F000D7FE0DA001F0E0FA08BD000042523A00FA
:1027000042504D00524553505F4C4541443A000001
:1027100000C08240400100200070A7404E6F6F62F1
:1027200000000000457272005B5B322C4572725DE6
:102730005D0D0A00476F6F64000000003801002043
:102740005B5B322C25645D5D0D0A000010B5074807
:10275000016807A001F0B0FA084903C9FDF7BCFE03
:102760000446214606A001F0A7FA10BDD0010020C2
:102770005B5B332C25645D5D0D0A0000F0010020D9
:102780005B5B342C25645D5D0D0A0000704710B55D
:10279000FFF720F858B1FFF773FDFFF7E5FEFFF7ED
:1027A0005BFFFFF7D3FFFFF7B7FDFEF759F910BD49
:1027B00038B5FFF715F800283BD00121684600F036
:1027C00099FAB0B19DF800101AA001F075FA9DF8C1
:1027D0000000302804D0312803D0322807D101E08E
:1027E00000BF00BF9DF800001649087000E000BF60
:1027F00000BF15480078032811DB00F05BFA05469E
:102800002846FEF769FE00F05BFA0446204600F019
:10281000BDF900F07DFA00200B49087004E00A4879
:102820000078401C08490870FA20FFF7ADFCFEF75D
:102830001DF938BD726563656976652025640D0AEA
:102840000000000000000020010000200146C888B0
:1028500008B9012070470020FCE700000146002075
:10286000034A506820F4404008435060704700001D
:102870000010024029B1064A52690243044B5A61D2
:1028800004E0034A52698243014B5A6170470000D9
:102890000010024029B1064AD2690243044BDA61B2
:1028A00004E0034AD2698243014BDA6170470000B9
:1028B0000010024029B1064A12690243044B1A6112
:1028C00004E0034A12698243014B1A617047000019
:1028D0000010024029B1064A92690243044B9A61F2
:1028E00004E0034A92698243014B9A6170470000F9
:1028F0000010024029B1064AD2680243044BDA6054
:1029000004E0034AD2688243014BDA60704700005A
:10291000001002400F48006840F001000D490860B7
:10292000084640680C4908400A4948600846006863
:102930000A490840074908600846006820F48020DA
:1029400008600846406820F4FE0048604FF41F000D
:1029500088607047001002400000FFF8FFFFF6FE9D
:1029600030B500210022002400232D4D6D6805F0B4
:102970000C0121B1042905D0082923D105E0294DF6
:10298000056022E0274D05601FE0254D6D6805F4C8
:102990007012234D6D6805F48034022505EB9242D8
:1029A0001CB9214D554305600BE01D4D6D6805F4C4
:1029B00000351DB11C4D5543056002E0194D5543CE
:1029C000056002E0174D056000BF00BF144D6D6843
:1029D00005F0F0010909154D6B5C0568DD404560A7
:1029E0000F4D6D6805F4E061090A104D6B5C456898
:1029F000DD4085600A4D6D6805F46051C90A0B4DD4
:102A00006B5C4568DD40C560054D6D6805F440416F
:102A1000890B074D6B5CC568B5FBF3F5056130BDEF
:102A20000010024000127A0000093D002A02002036
:102A30003A02002010B501460022002300204A116E
:102A4000012A02D1094C236806E0022A02D1074C70
:102A5000236A01E0054C636A01F01F0201249440DF
:102A60001C400CB1012000E0002010BD001002400D
:102A70000248406800F00C0070470000001002405F
:102A800001460020034A506820F0F00008435060DF
:102A900070470000001002401149096821F480319C
:102AA0000F4A11601146096821F480211160B0F5C8
:102AB000803F03D0B0F5802F0ED106E008490968A9
:102AC00041F48031064A116007E00549096841F484
:102AD000A021034A116000E000BF00BF7047000062
:102AE0000010024001460020034A506820F4E060D4
:102AF000084350607047000000100240014600206B
:102B0000034A506820F4605040EAC10050607047AA
:102B10000010024001490866704700000000424270
:102B200002460020044B586820F47C1042EA01035E
:102B30001843014B586070470010024001460020C6
:102B4000034A506820F003000843506070470000BB
:102B50000010024038B5002000900024002500BF7E
:102B60003120FFF767FF05460098401C0090009851
:102B7000B0F5A06F01D0002DF2D03120FFF75AFF41
:102B800008B1012400E00024204638BD2DE9F14FB2
:102B900000BF00BF00BF0098FDF791FC06463B4A0E
:102BA000FFF720F980468946394A40464946FEF7F4
:102BB0009FFF82468B465046594600F05FFB044615
:102BC0000D46344801680068401C324A10603248A3
:102BD00000EBC10030C010460068B0F57A7F08DB1A
:102BE0000020114608602D4A4FF47A712A4801F0FE
:102BF00005F828480068012838DD2648006840F2BA
:102C0000E731884232DA23480068801E224901EB0E
:102C1000C000D0E9006121480CC83046FDF794FCA3
:102C200024D81C480068401E1B4901EBC000D0E9B5
:102C300000611A480CC83046FDF79EFC16D8FEF716
:102C4000D5FD0646FDF73BFC154A03C2154814495D
:102C50000CC803C9FDF73BFB0646134A01F02EF9E9
:102C60000F48D0E900100F4AC2E900100F48007861
:102C7000312808D120462946FDF74DFC86B2314661
:102C80000BA001F019F8BDE8F88F0000201000201B
:102C900038100020180100205010002020010020D2
:102CA0003001002028010020380100200000002011
:102CB000256420000148008870470000240200209D
:102CC00001484088704700002402002001488088A5
:102CD000704700002402002070B504460025012240
:102CE00021460348FEF7C9FBC5B2284670BD000067
:102CF000B04F002070B504460D4600262A462146F6
:102D00000248FEF7BAFBC6B2304670BDBC4F002089
:102D10002DE9F04391B000200C900D900E900F9093
:102D2000089009900A900B900490059006900790E7
:102D30000390814697480068FDF7B0FB0546964A28
:102D4000FEF7DAFDCDE90C0194480068FDF7A6FB1B
:102D50000546934AFEF7D0FDCDE90E01914ADDE923
:102D60000C512846FEF742FFCDE908018E4ADDE905
:102D70000E512846FEF73AFFCDE90A01DDE90821A8
:102D8000104600F03FFBCDE90401DDE90A211046C1
:102D900000F0D6FACDE90601844A854BDDE904103E
:102DA0001B6802EBC302C2E90010824A804BDDE9D6
:102DB00006101B6802EBC302C2E900107E4A7C4B7E
:102DC000DDE906011B6802EBC30203C27848006814
:102DD000401C7749086008460068B0F5967F60DBC4
:102DE0000020086075480068002807DD7348006807
:102DF000401E7249086011B0BDE8F0837048714907
:102E00004FF496736C4ACDE900106A496748FDF7A4
:102E100077FD6D486D49CDE90010694869490CC8D6
:102E200003C901F073F80022694B664903C9FDF735
:102E30008BFB19D267480088B0F5FA7F14DA654831
:102E4000008828306349088008460088B0F5FA7F7A
:102E500002DD4FF4FA7008805E480088FDF748FDF7
:102E60000120564908601CE000225B4B554903C90C
:102E7000FDF782FB15D257480088642811DD5548BC
:102E8000008828385349088008460088642801DAF9
:102E9000642008804F480088FDF72AFD012047493B
:102EA00008604348006801285DDD41480068B0F5CE
:102EB000957F58DC3E480068801E3F4901EBC0000A
:102EC000D0E9007145480CC83846FDF700FA0546C0
:102ED00000221346FDF750FB45D835480068401ED8
:102EE000354901EBC000D0E900513C480CC82846E8
:102EF000FDF7EDF9074600221346FDF725FB32D812
:102F0000FEF774FC364908600968364A1268881A68
:102F1000FDF7C4FA054603AA00F0E4FF3048006854
:102F2000304908603048006804280BDC2F492E4ADD
:102F30000398126841F822002B480068401C2A4977
:102F4000086010E0002404E0284850F82400814480
:102F5000641C052CF8DB052099FBF0F0244908607F
:102F600000202149086023480078322810D1DDE98B
:102F70000E211046FDF7B0FA0546DDE90C2110469A
:102F8000FDF7AAFA06462A4631461BA000F094FE39
:102F900000BF30E750010020E03200205401002043
:102FA000F8320020B0320020C8320020883C0020D7
:102FB000B8010020E845002010330020FC0100206B
:102FC000E0010020D8010020F0010020E8010020ED
:102FD00000003440F801002000005440C0010020EF
:102FE000CC010020C8010020D4010020703C00204A
:102FF000D00100200000002025642C2025640D0A4B
:103000000000000010B526490978481CC11700EBE4
:103010005171C910A0EBC101214A1170104600780E
:1030200030B102280FD004281CD0062834D124E067
:10303000012220211B48FEF7C8FB0022402119482D
:10304000FEF7C3FB29E0FFF741FE174908600022A5
:1030500020211448FEF7B9FB002240211148FEF759
:10306000B4FB1AE0002220210E48FEF7AEFB01223D
:1030700040210C48FEF7A9FB0FE0FFF727FE0B49A4
:103080000860002220210748FEF79FFB0022402114
:103090000448FEF79AFB00E000BF00BF10BD00002F
:1030A00008020020000801405001002054010020C7
:1030B0007047000010B50446E1B2054800F047FD36
:1030C00000BF4021024800F075FC0028F9D010BD77
:1030D0000038014010B500F001F810BD0CB500201B
:1030E000019000903348006840F480303149086016
:1030F00000BF3048006800F4003000900198401C88
:103100000190009818B90198B0F5A06FF1D1294845
:10311000006800F4003010B10120009001E00020B0
:1031200000900098012843D12348006840F0100027
:10313000214908600846006820F00300086008463E
:10314000006840F0020008601A4840681949486069
:103150000846406848600846406840F4806048601F
:103160000846406820F47C1048600846406840F4F7
:10317000E81048600846006840F08070086000BFB2
:103180000C48006800F000700028F9D00948406839
:1031900020F00300074948600846406840F00200FC
:1031A000486000BF0348406800F00C000828F9D1CF
:1031B0000CBD000000100240002002402DE9FC5F21
:1031C00004460D464FF0000AD346284800680328FD
:1031D0000DDA264801680068401C244A1060244823
:1031E00000EBC10030C020462946BDE8FC9F4FF0EF
:1031F000000A0DE01E490AF1010001EBC000D0E910
:1032000000101B4A02EBCA02C2E900100AF1010ACF
:10321000BAF1020FEEDB1648C0E904454FF0000A90
:1032200013E05846FDF73AF98046114800EBCA0012
:10323000D0E9006332464046FCF7A8FFCDE9000123
:10324000FDF74AF983460AF1010ABAF1030FE8DBF8
:103250005846FDF723F906460022064BFDF73DF8D8
:1032600080460022044BFDF7AAF8BEE7B400002018
:10327000080C00200000F03F000008402DE9FC5F32
:1032800004460D464FF0000AD346294800686428DA
:103290000DDA274801680068401C254A106025485F
:1032A00000EBC10030C020462946BDE8FC9F4FF02E
:1032B000000A0DE01F490AF1010001EBC000D0E94E
:1032C00000101C4A02EBCA02C2E900100AF1010A0E
:1032D000BAF1630FEEDB174800F5467030C04FF0CF
:1032E000000A13E05846FDF7D9F88046114800EB74
:1032F000CA00D0E9006332464046FCF747FFCDE9FB
:103300000001FDF7E9F883460AF1010ABAF1640FFA
:10331000E8DB5846FDF7C2F806460022064BFCF7EC
:10332000DCFF80460022054BFDF749F8BDE70000B1
:1033300048010020902F00200000F03F000059407D
:103340002DE9FC5F04460D464FF0000AD34629489C
:10335000006805280EDA28482649096800EBC100F4
:1033600030C024480068401C224908602046294695
:10337000BDE8FC9F4FF0000A0DE01F490AF1010073
:1033800001EBC000D0E900101B4A02EBCA02C2E9FF
:1033900000100AF1010ABAF1040FEEDB1648C0E989
:1033A00008454FF0000A13E05846FDF777F88046CD
:1033B000114800EBCA00D0E9006332464046FCF7F2
:1033C000E5FECDE90001FDF787F883460AF1010A21
:1033D000BAF1050FE8DB5846FDF760F80646002213
:1033E000064BFCF77AFF80460022054BFCF7E7FF0F
:1033F000BEE7000004020020884F00200000F03FDC
:10340000000014402DE9FC5F04460D464FF0000A11
:10341000D3462948006805280EDA28482649096855
:1034200000EBC10030C024480068401C22490860FD
:1034300020462946BDE8FC9F4FF0000A0DE01F49D9
:103440000AF1010001EBC000D0E900101B4A02EBB9
:10345000CA02C2E900100AF1010ABAF1040FEEDB58
:103460001648C0E908454FF0000A13E05846FDF73A
:1034700015F88046114800EBCA00D0E900633246D7
:103480004046FCF783FECDE90001FDF725F88346B1
:103490000AF1010ABAF1050FE8DB5846FCF7FEFF16
:1034A00006460022064BFCF718FF80460022054B1B
:1034B000FCF785FFBEE7000000020020604F0020FF
:1034C0000000F03F0000144010B500F0F7F910BD07
:1034D00010B51348006840F0010011490860084623
:1034E0004068104908400E494860084600680E4987
:1034F00008400B4908600846006820F480200860F6
:103500000846406820F4FE0048604FF41F008860C1
:10351000FFF7E0FD4FF000600449086010BD0000B7
:10352000001002400000FFF8FFFFF6FE08ED00E08B
:1035300010B50121880700F04BF9012803D10121C2
:10354000800700F041F80B480068401C09490860FA
:10355000FFF758FD08480088401C074908800846C6
:103560000088022804DB002008800120034908703D
:1035700010BD000010020020140200200C020020E8
:1035800010B501210D4800F023F9012803D10121D4
:103590000A4800F019F80A480088401C00B208499F
:1035A00008800846B0F90000B0F57A7F04DB0020FF
:1035B000088001200349087010BD0000000C004085
:1035C000160200200D020020CA430282704721B17A
:1035D000028842F00102028004E002884FF6FE7386
:1035E0001A4002807047000010B5044668488442C3
:1035F00008D10121C014FFF77DF90021E014FFF785
:1036000079F9C4E0B4F1804F08D101210846FFF7F1
:1036100051F900210120FFF74DF9B8E05D488442DF
:1036200008D101210220FFF745F900210220FFF710
:1036300041F9ACE05848844208D101210420FFF749
:1036400039F900210420FFF735F9A0E053488442FE
:1036500008D101210820FFF72DF900210820FFF7EC
:1036600029F994E04E48844208D101211020FFF747
:1036700021F900211020FFF71DF988E04948844214
:1036800008D101212020FFF715F900212020FFF7A4
:1036900011F97CE04448844208D101214014FFF72D
:1036A00029F900216014FFF725F970E03F488442B2
:1036B00009D10121C804FFF71DF900214FF40020B2
:1036C000FFF718F963E03A48844209D1012108055F
:1036D000FFF710F900214FF48010FFF70BF956E0C7
:1036E0003448844209D101214805FFF703F900213C
:1036F0004FF40010FFF7FEF849E02F48844208D14C
:1037000001214020FFF7D6F800214020FFF7D2F832
:103710003DE02A48844208D101218020FFF7CAF801
:1037200000218020FFF7C6F831E02548844208D107
:1037300001218015FFF7BEF80021A015FFF7BAF8A8
:1037400025E02048844209D101210804FFF7D2F87E
:1037500000214FF48030FFF7CDF818E01A4884427A
:1037600009D101214804FFF7C5F800214FF40030CA
:10377000FFF7C0F80BE01548844208D10121880406
:10378000FFF7B8F800214FF48020FFF7B3F810BD21
:10379000002C01400004004000080040000C0040E4
:1037A000001000400014004000340140004C014073
:1037B000005001400054014000180040001C00402F
:1037C000002000400040014000440140004801400A
:1037D00030B50246002000230024158A05EA0103C3
:1037E000958905EA010413B10CB1012000E0002025
:1037F00030BD1AB183890B43838102E083898B43F7
:103800008381704782884FF68F731A408280828846
:103810000A43828070470000002202881D4B9842B4
:103820000ED01D4B98420BD0B0F1804F08D01B4BEF
:10383000984205D01A4B984202D01A4B984204D1B4
:103840004FF68F731A404B881A43174B984207D094
:10385000164B984204D04FF6FF431A40CB881A43C8
:1038600002808B8883850B8803850A4B98420BD096
:10387000094B984208D00E4B984205D00D4B984208
:1038800002D00D4B984201D10B7A0386012383822B
:1038900070470000002C014000340140000400404B
:1038A00000080040000C00400010004000140040E0
:1038B00000400140004401400048014004480068C5
:1038C00020B103480068401E0149086070470000AD
:1038D0004002002008B50020009040F22551204809
:1038E00000F075F858B12520FEF77CFC1C4800F06C
:1038F00029F9C0B200909DF8000000F0D1F908212C
:10390000174800F057F8012806D10821144800F0A4
:103910002DF8134800F016F940F22771104800F016
:1039200056F8E0B140F227710D4800F028F8252044
:10393000FEF758FC6846FFF7CFF99DF800100848DD
:1039400000F005F90748FEF781FF40B10020064965
:103950000870002240F22771014800F062F808BDAB
:1039600000380140B04F00201802002001F400721E
:10397000B2F5007F00D100BFCA430280704710B586
:103980000022002340F66A14A14200D100BF0A12AF
:1039900001249440A3B2DC43048010BD21B182898C
:1039A00042F40052828104E082894DF6FF731A408E
:1039B0008281704702460020B1F5007F00D100BF30
:1039C00013880B400BB1012000E00020704770B558
:1039D0000246002400230025002040F66A16B1426A
:1039E00000D100BFC1F3421501F01F03012606FA02
:1039F00003F3012D02D19689334006E0022D02D156
:103A0000168A334001E0968A33400C12012606FAEA
:103A100004F41688344013B10CB1012000E00020FA
:103A200070BDF0B50346002400260025002040F6B6
:103A30006A17B94200D100BF1846C1F3421401F021
:103A40001F06012707FA06F5012C01D10C3004E00E
:103A5000022C01D1103000E014301AB107682F4356
:103A6000076002E00768AF430760F0BD2DE9F0474B
:103A700086B005460E460024A24600BFA146002798
:103A8000B08900B100BF2F462C8A4CF6FF7004406D
:103A9000F08804432C82AC894EF6F3100440B088C1
:103AA00031890843718908430443AC81AC8A4FF6DD
:103AB000FF400440B0890443AC8201A8FEF750FFE8
:103AC0001F48874202D1DDF810A001E0DDF80CA00C
:103AD000A88900F4004040B10AEBCA0000EB0A10CC
:103AE00031684900B0FBF1F807E00AEBCA0000EBCF
:103AF0000A1031688900B0FBF1F86420B8FBF0F0DF
:103B000004012009642101FB1089A88900F4004008
:103B100040B1322000EBC900B0FBF1F000F007002B
:103B2000044308E0322000EB09106421B0FBF1F0FF
:103B300000F00F0004432C8106B0BDE8F0870000C0
:103B40000038014001468888C0F308007047C1F37F
:103B50000802828070474FF4165101600021818075
:103B6000C18001810C2141810021818170470000C9
:103B70002DE9FF5F81468A46934600210D460E4699
:103B80000027DFF8708001241BE009EBC40003C8A4
:103B90002A463346CDE90201FCF7EEFC02D209EBDE
:103BA000C40060C809EBC40103C93A464346CDE9E5
:103BB0000201FCF7C9FC03D209EBC400D0E900788C
:103BC000641C5445E1DB3A46434628463146FCF73F
:103BD0007EFB0022084BCDE90001FCF7F0FB2A46F2
:103BE0003346CDE90201FCF775FBCBE90001BDE8E6
:103BF000FF9F000000FEAF40000010402DE9FF5F76
:103C000081468A46934600210D460E460027DFF87E
:103C1000808001241BE009EBC40003C82A46334618
:103C2000CDE90201FCF7A8FC02D209EBC40060C890
:103C300009EBC40103C93A464346CDE90201FCF74A
:103C400083FC03D209EBC400D0E90078641C54451E
:103C5000E1DB3A46434628463146FCF738FB0D4A3D
:103C600003C23A46434628463146FCF730FB002261
:103C7000094BCDE90001FCF7A2FB2A463346CDE90A
:103C80000201FCF727FBCBE90001BDE8FF9F000024
:103C900000FEAF40400100200000104000BFFEE7E2
:103CA00031B50024012269460248FDF7AFFCC4B2D9
:103CB000204638BDBC4F00200FB4054B10B503A9FA
:103CC000044A029800F018F810BC5DF814FB0000DC
:103CD000154200085802002002E008C8121F08C15F
:103CE000002AFAD170477047002001E001C1121F7D
:103CF000002AFBD1704700002DE9FF4F89B09B4699
:103D00000446002506E025280BD05A460B9990471B
:103D1000641C6D1C20780028F5D10DB02846BDE844
:103D2000F08F0027B8460122474900E0074314F806
:103D3000013F203B02FA03F00842F7D120782E28F9
:103D400019D114F8010F47F004072A280ED06FF09C
:103D50002F022078A0F1300109290CD808EB880146
:103D600002EB410100EB0108641CF2E70A98641CB5
:103D700050F8048B0A9020780028CED0642808D010
:103D8000692806D075281ED05A460B9990476D1C9D
:103D900058E00A994FF00A0901C90A91002802DA8D
:103DA00040422D2102E0390504D52B218DF8201049
:103DB000012103E0F90704D02021F7E78A4608AE85
:103DC0000DE00021FAE70A994FF00A0901C90A91AA
:103DD000F7E74946FCF7E8FB303106F8011D0028FB
:103DE000F7D1ADEB060000F12009780701D44FF0C0
:103DF0000108C84502DDA8EB090000E0002080466C
:103E0000002706E008A85A46C05D0B9990476D1C34
:103E10007F1C5745F6DB04E030205A460B9990474B
:103E20006D1CB8F10001A8F10108F5DC05E016F8F9
:103E3000010B5A460B9990476D1CB9F10001A9F18D
:103E40000109F4DC641C65E70928010030B502466D
:103E500000231AE0002013E052F82050441C52F8CE
:103E60002440A5420BDD32F82050ACB2451C52F87C
:103E7000255042F82050451C42F8254000BF401C08
:103E8000CC1A641E8442E7DC5B1C4C1E9C42E1DCC5
:103E900030BD00002DE9F04105460E4614462A4685
:103EA000334600200449FCF78AFA0746FCF714FB66
:103EB0002060BDE8F0810000004CED402DE9F041AC
:103EC00005460E4614462A46334600200449FCF7B0
:103ED00076FA0746FCF700FB2060BDE8F0810000A1
:103EE000004CED402DE9F04105460E4614462A46A9
:103EF000334600200449FCF762FA0746FCF7ECFA67
:103F00002060BDE8F0810000004CED402DE9F04F4D
:103F100087B005460E4617469846DDE910B90024DD
:103F2000A246142102A8FCF726F93A464346284641
:103F30003146FCF744FACBE90001DBE9000100223D
:103F40009B4BCDE90001FCF7C8F9CBE9000100BFAC
:103F500008E098490AF1010051F8200041F82A00D0
:103F60000AF1010ABAF1040FF3DBDBE90021104684
:103F7000FCF7B2FA8F4908614FF0000A07E08D485C
:103F800050F82A0002A941F82A000AF1010ABAF100
:103F9000050FF4DB052102A8FFF758FF049CB4F5D8
:103FA000E17F04DC00218448C9E90010E2E0B4F5B7
:103FB000E17F07DDB4F5EB7F04DC00217F48C9E930
:103FC0000010D7E0B4F5EB7F07DDB4F5FF7F04DC2C
:103FD00000217B48C9E90010CCE0B4F5FF7F07DD84
:103FE000B4F5077F04DC00217648C9E90010C1E080
:103FF000B4F5077F07DDB4F5117F04DC00217248BA
:10400000C9E90010B6E0B4F5117F07DDB4F5167FFD
:1040100004DC00216D48C9E90010ABE0B4F5167F5F
:1040200007DDB4F51B7F04DC00206949C9E9000104
:10403000A0E0B4F51B7F07DDB4F5207F04DC002190
:104040006448C9E9001095E0B4F5207F07DDB4F5B8
:104050002A7F04DC00206049C9E900018AE0B4F548
:104060002A7F07DDB4F5347F04DC00215B48C9E911
:1040700000107FE0B4F5347F07DDB4F5487F04DC41
:1040800000205749C9E9000174E0B4F5487F07DD15
:10409000B4F56B7F04DC00205249C9E9000169E0F6
:1040A000B4F56B7F07DDB4F5757F04DC00214E4865
:1040B000C9E900105EE0B4F5757F07DDB4F57F7FD8
:1040C00004DC00214948C9E9001053E0B4F57F7FC2
:1040D00008DD40F22440844204DC00204449C9E960
:1040E000000147E040F22540844207DBB4F5876FCA
:1040F00004DC00213F48C9E900103BE0B4F5876FBC
:1041000008DD40F24C40844204DC00203A49C9E911
:1041100000012FE040F24D40844207DBB4F58C6F84
:1041200004DC00203549C9E9000123E0B4F58C6FB7
:1041300008DD40F27E40844204DC00213048C9E9B9
:10414000001017E040F27F40844208DB40F29240CA
:10415000844204DC00212B48C9E900100AE040F247
:104160009340844206DBB4F5966F03DC00202649B9
:10417000C9E90001D9E900010022244BCDE9000181
:10418000FCF7FAF904D200212048C9E900100CE03C
:10419000D9E9000100221E4BCDE90001FCF7D4F95A
:1041A00003D200211A48C9E9001007B0BDE8F08F1A
:1041B00000408F40484F002000C0584000805840C9
:1041C000004058400000584000C057400080574011
:1041D000004057400000574000C056400080564005
:1041E000004056400000564000C0554000805540F9
:1041F000004055400000554000C0544000805440ED
:10420000004054400000544000C05340000059405A
:104210000080514070B504460D46E0B2FEF74AFFFB
:10422000204670BDFDF746FFFDF7A4FE4FF49670E3
:10423000FDF746F904A0FFF73FFD03E0FEF7B8FAEB
:10424000FEF7A5FAFAE70000496E69742053797306
:1042500074656D20686173206265656E2066696EA5
:1042600069736865642E0D0A0000000000000000FC
:104270000000000000000000000000003F400000BF
:10428000000000000000300040003000400000004E
:1042900009000BC03D000BC03D00090018C02440C0
:1042A0007FE0224031800000180024C01B000D80F8
:1042B0003240018003801C4027401C8007400040A2
:1042C000100060000000000000000000000000007E
:1042D00000001F80204040200000402020401F8020
:1042E00000000000090006001F8006000900000011
:1042F000040004003F80040004000000001000607F
:10430000000000000000000004000400040004009D
:104310000400000000000040000000000000000059
:10432000002001C006003800400000001F8020402F
:10433000204020401F800000000010403FC000408F
:104340000000000018C02140224024401840000016
:1043500010802040244024401B80000002000D00FB
:1043600011003FC0014000003C8024402440244014
:10437000238000001F80244024403440038000003C
:104380003000200027C03800200000001B8024409F
:10439000244024401B8000001C0022C022402240F8
:1043A0001F80000000000000084000000000000026
:1043B0000000000004600000000000000000040095
:1043C0000A0011002080404009000900090009008E
:1043D0000900000000004040208011000A00040095
:1043E0001800200023402400180000001F802040F7
:1043F000274029401F400000004007C039000F003F
:1044000001C0004020403FC0244024401B800000E9
:104410001F802040204020403080000020403FC0CE
:10442000204020401F80000020403FC024402E40FC
:1044300030C0000020403FC024402E00300000006B
:104440000F001080204022403380020020403FC0F7
:10445000040004003FC02040204020403FC02040D6
:10446000204000000060202020203FC020002000CD
:1044700020403FC024400B0030C0204020403FC0BF
:1044800020400040004000C03FC03C0003C03C0052
:104490003FC0000020403FC00C4023003FC0200030
:1044A0001F802040204020401F80000020403FC04F
:1044B00024402400180000001F802140214020E0FB
:1044C0001FA0000020403FC02440260019C000402B
:1044D00018C0244024402240318000003000204099
:1044E0003FC020403000000020003F8000400040DE
:1044F0003F80200020003E0001C00700380020005F
:10450000380007C03C0007C038000000204039C018
:10451000060039C0204000002000384007C0384065
:1045200020000000304021C02640384020C000005C
:10453000000000007FE040204020000000007000EC
:104540000C000380004000000000402040207FE07D
:1045500000000000000020004000200000000000DB
:1045600000100010001000100010001000000000EB
:1045700040000000000000000000028005400540EF
:1045800003C0004020003FC00440044003800000FE
:104590000000038004400440064000000000038047
:1045A000044024403FC00040000003800540054017
:1045B00003400000000004401FC0244024402000AD
:1045C000000002E0055005500650042020403FC086
:1045D0000440040003C000400000044027C0004025
:1045E0000000000000100010041027E00000000090
:1045F00020403FC00140070004C00440204020404C
:104600003FC000400040000007C0040007C0040095
:1046100003C00000044007C00440040003C0004081
:10462000000003800440044003800000041007F0F1
:104630000450044003800000000003800440045044
:1046400007F00010044007C002400400040000000E
:10465000000006400540054004C0000000000400C2
:104660001F80044000400000040007800040044018
:1046700007C000400400070004C0018006000400D9
:10468000060001C0070001C006000000044006C08B
:10469000010006C0044000000410071004E001807F
:1046A000060004000000044005C00640044000006D
:1046B0000000000004007BE040200000000000003B
:1046C0000000FFF000000000000040207BE004003C
:1046D000000000004000800040002000200040005A
:1046E00000000000000000000000000000000000CA
:1046F0000000000000001FCC000C000000000000C3
:104700000000080030006000080030006000000079
:10471000022003FC1E20022003FC1E2002200000B9
:1047200000000E1811043FFF10840C7800000000F8
:104730000F0010840F3800C007781884007800003C
:1047400000780F8410C411240E9800E4008400083F
:104750000800680070000000000000000000000079
:1047600000000000000007E01818200440020000CC
:10477000000040022004181807E0000000000000BC
:104780000240024001800FF0018002400240000020
:104790000080008000800FF8008000800080000012
:1047A0000001000D000E00000000000000000000ED
:1047B0000000008000800080008000800080008079
:1047C0000000000C000C00000000000000000000D1
:1047D000000000060018006001800600180020009C
:1047E000000007F0080810041004080807F0000093
:1047F0000000080408041FFC00040004000000007E
:1048000000000E0C10141024104411840E0C000033
:1048100000000C1810041104110412880C70000020
:10482000000000E00320042408241FFC00240000F2
:1048300000001F98108411041104108810700000EB
:10484000000007F0088811041104188800700000A7
:1048500000001C00100010FC13001C0010000000E1
:1048600000000E3811441084108411440E380000EA
:1048700000000700088C10441044088807F000006E
:10488000000000000000030C030C0000000000000A
:104890000000000000010106000000000000000010
:1048A00000000080014002200410080810040000ED
:1048B000022002200220022002200220022000000A
:1048C00000001004080804100220014000800000CD
:1048D00000000E001200100C106C10800F00000081
:1048E00003E00C1813E4142417C4082807D00000B0
:1048F0000004003C03C41C40074000E4001C00040A
:1049000010041FFC1104110411040E880070000033
:1049100003E00C1810041004100410081C10000010
:1049200010041FFC100410041004080807F0000015
:1049300010041FFC1104110417C41004081800000F
:1049400010041FFC1104110017C010000800000023
:1049500003E00C181004100410441C780040000000
:1049600010041FFC10840080008010841FFC1004C1
:104970000000100410041FFC1004100400000000CC
:1049800000030001100110011FFE100010000000C4
:1049900010041FFC110403801464181C1004000090
:1049A00010041FFC1004000400040004000C0000AC
:1049B00010041FFC1F0000FC1F001FFC100400005F
:1049C00010041FFC0C04030000E010181FFC100072
:1049D00007F00808100410041004080807F000008D
:1049E00010041FFC10841080108010800F00000045
:1049F00007F0081810241024101C080A07F2000001
:104A000010041FFC1104110011C011300E0C000421
:104A100000000E1C11041084108410441C38000087
:104A20001800100010041FFC1004100018000000F3
:104A300010001FF810040004000410041FF81000F8
:104A400010001E0011E0001C007013801C001000FC
:104A50001FC0103C00E01F0000E0103C1FC0000021
:104A60001004180C163401C001C01634180C1004C0
:104A700010001C00130400FC13041C0010000000B4
:104A80000804101C1064108413041C041018000087
:104A90000000000000007FFE4002400240020000D3
:104AA000000030000C0003800060001C00030000C8
:104AB00000004002400240027FFE000000000000B3
:104AC00000000000200040004000400020000000E6
:104AD00000010001000100010001000100010001CE
:104AE0000000400040002000000000000000000026
:104AF00000000098012401440144014400FC00042A
:104B000010001FFC008801040104008800700000F0
:104B10000000007000880104010401040088000006
:104B20000000007000880104010411081FFC00044B
:104B3000000000F8014401440144014400C80000A1
:104B40000000010401040FFC1104110411001800FD
:104B5000000000D601290129012901C90106000030
:104B600010041FFC008401000100010400FC00048B
:104B700000000104190419FC0004000400000000F6
:104B80000000000300010101190119FE00000000EE
:104B900010041FFC0024004001B4010C01040000BB
:104BA0000000100410041FFC0004000400000000BA
:104BB000010401FC0104010001FC0104010000FCEE
:104BC000010401FC008401000100010400FC000458
:104BD000000000F8010401040104010400F80000D1
:104BE000010101FF0085010401040088007000003C
:104BF00000000070008801040104010501FF0001AC
:104C00000104010401FC0084010401000180000092
:104C1000000000CC0124012401240124019800009B
:104C200000000100010007F8010401040000000079
:104C3000010001F8000400040004010801FC000464
:104C4000010001800170000C001001600180010072
:104C500001F0010C003001C00030010C01F0010036
:104C600000000104018C00740170018C010400003B
:104C7000010101810171000E001801600180010035
:104C800000000184010C013401440184010C000086
:104C9000000000000000000001003EFC4002400255
:104CA0000000000000000000FFFF00000000000006
:104CB0000000400240023EFC010000000000000035
:104CC00000006000800080004000400020002000C4
:104CD000F04C0008000000205C02000014070008EF
:104CE000E04D00085C02002034520000E83C00085F
:104CF0007230681156457C5EEF63CF3F019E1A40CB
:104D00003565D93F10617AF01848115EDDC1500851
:104D10004EE0BFCEFD21EE1F95D13F085AE1087A43
:104D2000D1305818BDE06D2C03D9B2BFBEDE4607A6
:104D30008115C63F3714C383AD56EE086BFEBF1016
:104D400069305810A45C8C0FA14BFEBFA797F3EFFE
:104D500073C3EC18011A092EB0380AAEB7976A96D9
:104D60009EA73FB5086BB73F10693008101FFA5473
:104D7000D7B4A3EAF4BFFB2FA908DA79DF800120BA
:104D8000380A864B287E6D02753F6F086B853F1091
:104D90006970381A57E106D75299FCBF3105FF19DF
:104DA000B9DAE93F41246A081DA9EF3F38086BFFD3
:104DB000BF106930680F3E6E7212A7A8FFBFA4B47F
:104DC000C3FC25531801702D010203040470090669
:104DD00007080902040608ACA24A0422291E410061
:0400000508000131BD
:00000001FF
