:020000040800F2
:10000000387A002045010008ED1F0008E9170008B4
:10001000E91F0008190A0008B53A000800000000AE
:10002000000000000000000000000000752E000825
:10003000931400080000000051250008E132000878
:100040005F0100085F0100085F0100085F01000810
:100050005F0100085F0100085F0100085F01000800
:100060005F0100085F0100085F0100085F010008F0
:100070005F0100085F0100085F0100085F010008E0
:100080005F0100085F0100085F0100085F010008D0
:100090005F0100085F0100085F0100085F010008C0
:1000A0005F0100085F0100085F0100085F010008B0
:1000B000493300085F0100085F0100085F01000884
:1000C0005F0100085F0100085F0100085F01000890
:1000D0005F010008ED3600085F0100085F010008BD
:1000E0005F0100085F0100085F0100085F01000870
:1000F0005F0100085F0100085F0100085F01000860
:100100005F0100085F010008993300085F010008E3
:100110005F0100085F0100085F0100085F0100083F
:100120005F0100085F010008151200085F01000868
:10013000DFF80CD000F0C6FA004800473D40000848
:10014000387A00200648804706480047FEE7FEE769
:10015000FEE7FEE7FEE7FEE7FEE7FEE7FEE7FEE777
:10016000E932000831010008D2B201E000F8012BA9
:10017000491EFBD270470022F6E710B513460A4627
:1001800004461946FFF7F0FF204610BD2DE9FE4F4B
:10019000804681EA0300C00F0C46009021F0004128
:1001A00023F00045B8EB0200A94105D240462146A4
:1001B00090461C460B46024623F00040104347D0B1
:1001C000270DC7F30A00C3F30A510290401A0190A9
:1001D00040286BDAC3F3130040F4801B009892466A
:1001E00020B10023D2EB030A63EB0B0B01985946B5
:1001F000C0F14002504600F0D7F906460D46504681
:100200005946019A00F0EFF910EB08006141002413
:1002100087EA115284EAE7731A4340D0009A62B326
:10022000019A012A4FEA075215DC001B61EB02011B
:100230004FF0004202EA0752CDE90042001C41F5AE
:10024000801132462B4600F0EFF903B0BDE8F08F85
:1002500040462146F9E7001B61EB0201001C41F515
:10026000801300185B412018A2F5001747EB03012B
:1002700040EAD570B6196D4111E06D084FEA3606B7
:1002800045EAC0754FEA0752001B61EB0201001CF2
:1002900041F5801149084FEA3000001951413246BA
:1002A0002B4603B0BDE8F04F00F0AFB90098012233
:1002B00040000023D0EB020263EBE073009821467C
:1002C0004FEAE074B8EB000061EB0401E9E783F06A
:1002D00000435BE781F0004158E72DE9FE4F81EADA
:1002E000030404F0004421F0004100944FF0000B9F
:1002F00023F0004350EA01045ED052EA03045BD0CD
:10030000C3F30A54C1F30A552C44A4F2F334019404
:10031000A0FB0254C1F3130141F48011C3F3130392
:1003200043F4801301FB024400FB034E840A970A46
:1003300044EA815447EA8357A4FB076802958D0A73
:1003400005FB07854FEA932C04FB0C542705029DFF
:100350004FEA065847EA1637B5EB08056EEB070C6F
:10036000870E920E47EA811742EA8312A7FB020129
:10037000B6EB0B0164EB00042B0D43EA0C335E1863
:1003800044EB1C50DA465146E7FB0201C5F3130467
:100390004FEA0B3343EA14534FEA0432019C43EA19
:1003A0000603A4F10C040294009CCDE900B400F013
:1003B0003BF903B0BDE8F08F00200146F9E72DE9D5
:1003C000F04D81EA030404F0004B21F0004514468F
:1003D0004FF0000A23F0004150EA050220D054EA11
:1003E00001021DD0C5F30A570246C5F31303C1F33A
:1003F0001300C1F30A5640F4801543F48013A7EBB1
:100400000608101BD64608F2FD3873EB050002D330
:1004100008F1010801E092185B41B8F1000F03DA1E
:1004200000200146BDE8F08D00204FF48011064603
:1004300084460EE0171B73EB050705D3121B63EB15
:10044000050306434CEA010C49084FEA30009218B4
:100450005B4150EA0107EDD152EA030012D082EA73
:10046000040083EA0501084305D0101BAB4106D206
:100470000122002306E000224FF0004302E06FF06B
:10048000010253101AEB06004CEB085110EB0A0066
:1004900041EB0B01BDE8F04D00F0B7B80EB5C10F50
:1004A00080EAE0700844CA07002140F233438DE837
:1004B0000E000A460B4600F0B7F803B000BD0EB5BB
:1004C00040F2334102910021CDE900110A460B466A
:1004D00000F0AAF803B000BD70B5C1F30A5201F0F4
:1004E00000450024C1F3130140F2FF3341F48011B1
:1004F0009A4201DA002070BD40F233439A42A2F2E0
:10050000334203DC524200F05EF800E090402C439E
:10051000F1D0404270BDC1F30A5210B5C1F31301CE
:1005200040F2FF3341F480119A4201DA002010BDFD
:1005300040F233439A42A2F2334203DC524200F0CB
:1005400042F810BD904010BD30B5041E71F100049A
:1005500004DB4FF00044404264EB0101141E73F1D0
:10056000000405DB1C464FF00043524263EB0403DA
:100570008B4208BF824230BD30B5041E71F10004C9
:1005800004DB4FF00044404264EB0101141E73F1A0
:10059000000405DB1C464FF00043524263EB0403AA
:1005A000994208BF904230BD202A04DB203A00FA6D
:1005B00002F1002070479140C2F1200320FA03F3BA
:1005C000194390407047202A04DB203A21FA02F0B8
:1005D0000021704721FA02F3D040C2F1200291407D
:1005E000084319467047202A06DBCB17203A41FA08
:1005F00002F043EAE07306E041FA02F3D040C2F1B0
:100600002002914008431946704710B5141E73F13B
:10061000000408DA401C41F1000192185B411A43C2
:1006200001D120F0010010BD2DE9F04D92469B460E
:1006300011B1B1FA81F202E0B0FA80F220329046B4
:10064000FFF7B2FF04460F4640EA0A0041EA0B01F9
:1006500053465A46084313D0114653EA010019D0B5
:10066000C8F140025046FFF7AEFF05460E46504621
:1006700059464246FFF798FF084305D0012004E0A1
:1006800020463946BDE8F08D0020054346EAE07675
:100690002C4337430A986305E40AA0EB08000022C4
:1006A000FD0A44EA47540A3002D500200146E9E732
:1006B000010510196941DDE9084500196941BDE8E6
:1006C000F04DA2E7064C074D06E0E06840F001035C
:1006D00094E8070098471034AC42F6D3FFF72CFD9E
:1006E000BC4A0008DC4A000870B58C1810F8015BA1
:1006F00015F0070301D110F8013B2A1106D110F8BB
:10070000012B03E010F8016B01F8016B5B1EF9D1BE
:100710002B0705D40023521E0DD401F8013BFAE744
:1007200010F8013BCB1A921C03E013F8015B01F8AF
:10073000015B521EF9D5A142D8D3002070BD21B172
:10074000826842F00102826003E0826822F00102C6
:100750008260704721B1826842F48072826003E057
:10076000826822F480728260704721B1826842F40C
:100770008012826003E0826822F4801282607047F7
:10078000014600208A6802F004020AB1012000E05C
:1007900000207047014600208A6802F008020AB172
:1007A000012000E00020704730B502460020002301
:1007B00050680F4C20400D790C6844EA0524204312
:1007C000506090680B4C2040D1E902542C434D7985
:1007D00044EA450420439060D06A20F470000C7C09
:1007E000641EE4B2234340EA0350D06230BD0000EF
:1007F000FFFEF0FFFDF7F1FFF0B504460D460020C7
:100800000021092D11DDE068A5F10A0606EB460777
:10081000072606FA07F18843A5F10A0606EB460605
:1008200003FA06F10843E0600CE0206905EB450798
:10083000072606FA07F1884305EB450603FA06F199
:1008400008432061072A0FDA606B561E06EB860705
:100850001F2606FA07F18843561E06EB860605FAA0
:1008600006F10843606322E00D2A0FDA206BD61FE1
:1008700006EB86071F2606FA07F18843D61F06EB0C
:10088000860605FA06F10843206310E0E06AA2F14B
:100890000D0606EB86071F2606FA07F18843A2F12C
:1008A0000D0606EB860605FA06F10843E062F0BD88
:1008B000816841F0080181607047816841F004015E
:1008C0008160704710B504462146002000F092FC7C
:1008D00010BD00002DE9FF4F8DB081468A4693463A
:1008E00000210F4688464948CDE90A100891099130
:1008F00000204649CDE90601054606460021434849
:10090000CDE90410002457E009EBC40103C9CDE987
:100910000201DDE90A23FFF717FE04D209EBC40048
:1009200003C8CDE90A0109EBC40103C93A464346AD
:10093000CDE90201FFF720FE03D209EBC400D0E9A4
:1009400000780AEBC40103C9CDE90201DDE9062301
:10095000FFF7FAFD04D20AEBC40003C8CDE9060193
:100960000AEBC40103C9CDE90201DDE90823FFF761
:1009700003FE04D20AEBC40003C8CDE908010BEB67
:10098000C40103C9CDE90201DDE90423FFF7DCFD61
:1009900004D20BEBC40003C8CDE904010BEBC40186
:1009A00003C92A463346CDE90201FFF7E5FD02D22D
:1009B0000BEBC40060C8641C10988442A4DB38466A
:1009C0004146DDE90A23FFF782FC1A9A03C2DDE9FA
:1009D0000623DDE90801FFF77AFC1B9A03C22846CB
:1009E0003146DDE90423FFF772FC0022084BCDE914
:1009F0000001FFF7E4FC2A463346CDE90201FFF788
:100A000069FC044A03C211B0BDE8F08F00FEAF409C
:100A1000000008406801002000BFFEE710B5024654
:100A2000012000E050430B1EA1F10104E1B2F9D115
:100A300010BD00000020014908707047C10100206E
:100A40000020014908707047C001002000B587B040
:100A50004FF4004001F00CFE0121480201F044FE79
:100A60000121042001F040FE0E20ADF81800002006
:100A70008DF81B0006A9244800F0FEFD002001901F
:100A800001208DF8080000208DF809004FF40020A7
:100A900003900020049003208DF8140001A91B4846
:100AA000FFF782FE0723012211461848FFF7A4FE34
:100AB0000723022211461548FFF79EFE0723032253
:100AC00011461248FFF798FE01211048FFF742FE39
:100AD00001210E48FFF749FE01210C48FFF72FFEC8
:100AE0000A48FFF7E5FE00BF0848FFF753FE00285D
:100AF000FAD10648FFF7E1FE00BF0448FFF740FEC9
:100B00000028FAD107B000BD0008014000240140D0
:100B100008B50121042001F0E7FD2020ADF8000018
:100B200003208DF8020010208DF8030069460D485F
:100B300000F0A2FD012220210A4800F03EFE4020E4
:100B4000ADF8000003208DF8020010208DF803009E
:100B50006946044800F090FD00224021014800F061
:100B60002CFE08BD0008014000B585B0012104201D
:100B700001F0BAFD0121480701F096FD1020ADF803
:100B8000100003208DF8120000208DF8130004A936
:100B90000D4800F071FD2C20009000200190029083
:100BA0000390694600F00CFB0121002000F0F2FAEE
:100BB0004FF4E171002000F01DFB0121002000F046
:100BC000D5FA05B000BD00000008014000B58BB0AB
:100BD0000121084601F058FD114800F055FB11486D
:100BE0000090114801900020029003200390002003
:100BF00004908020059040000690800007902020FF
:100C00000890C001099000200A906946044800F04D
:100C100000FC0121024800F02BFB0BB000BD0000DE
:100C2000080002404C240140D801002003B58DB0DB
:100C30000121022001F028FD1A4800F025FB1A4886
:100C400002900D9803900E980590102004900020BB
:100C50000690802007904000089080000990202096
:100C60000A9000020B9000200C9002A90D4800F0A1
:100C7000D0FB3A208DF8040000208DF805008DF897
:100C8000060001208DF8070001A801F0BDF901223E
:100C90000221044800F0B4FB0121024800F0E8FA08
:100CA0000FB000BD300402400874004008B50121B7
:100CB000082001F019FD0120ADF8000003208DF897
:100CC000020048208DF8030069460B4800F0D4FC70
:100CD0000220ADF8000003208DF8020010208DF8EE
:100CE00003006946044800F0C7FC012202210248C3
:100CF00000F063FD08BD0000000C014008B50121B3
:100D0000102001F0F1FC1020ADF8000003208DF858
:100D1000020010208DF8030069460D4800F0ACFC7D
:100D2000012210210A4800F048FD2020ADF8000003
:100D300003208DF8020010208DF803006946044856
:100D400000F09AFC00222021014800F036FD08BD89
:100D50000010014010B54FF4A06001F08DF910BDF6
:100D600008B50121082001F0BFFC0121102001F08D
:100D7000BBFC4FF40050ADF8000010208DF80300CC
:100D800003208DF802006946294800F075FC4FF4F5
:100D90000051274800F00FFD4FF40040ADF800006F
:100DA00010208DF8030003208DF8020069462048CA
:100DB00000F062FC4FF400411D4800F0FCFC4FF4D1
:100DC0008040ADF8000010208DF8030003208DF85E
:100DD00002006946164800F04FFC4FF48041144869
:100DE00000F0E9FC4FF48050ADF8000010208DF8C1
:100DF000030003208DF8020069460D4800F03CFC1A
:100E00004FF480510A4800F0D6FC0820ADF80000ED
:100E100010208DF8030003208DF802006946054874
:100E200000F02AFC0821034800F0C5FC08BD0000C2
:100E3000000C01400010014010B50021AE2001F06F
:100E400057FA0021D52001F053FA0021502001F07B
:100E50004FFA0021A82001F04BFA00213F2001F0B9
:100E600047FA0021D32001F043FA0021084601F09F
:100E70003FFA0021402001F03BFA00218D2001F0D3
:100E800037FA0021142001F033FA0021202001F06C
:100E90002FFA0021022001F02BFA0021A12001F0FD
:100EA00027FA0021C02001F023FA0021DA2001F006
:100EB0001FFA0021122001F01BFA0021812001F00D
:100EC00017FA0021EF2001F013FA0021D92001F0D8
:100ED0000FFA0021F12001F00BFA0021DB2001F0D4
:100EE00007FA0021302001F003FA0021A42001F0CC
:100EF000FFF90021A62001F0FBF90021AF2001F04D
:100F0000F7F910BD10B501F00FFC4FF4803001F07F
:100F1000CDFC01F029FD0446012C24D1102000F065
:100F200091FB022000F09CFB002001F0B3FC0020AC
:100F300001F0EEFCA00201F0DFFC4FF4E011200410
:100F400001F0F8FC012001F0EFFC00BF392001F0B6
:100F50007BFC0028FAD0022001F0FAFC00BF01F06F
:100F600091FC0828FBD110BD7FB505460C46012138
:100F7000084601F099FBADF80850ADF80440002098
:100F8000ADF80A00ADF8060001A94FF0804002F06C
:100F90004FFB01221146900702F037FB1C208DF811
:100FA000000000208DF8010003208DF802000120D0
:100FB0008DF80300684601F027F80121880702F048
:100FC00012FA7FBD3EB505460C460121022001F014
:100FD0006BFBADF80450ADF800400020ADF8060002
:100FE000ADF802006946064802F022FB20210448C1
:100FF00002F014FB0121024802F0F5F93EBD0000A9
:10100000000400403EB505460C460121042001F0D5
:101010004BFB0C4802F0F4F9ADF80450ADF8004079
:101020000020ADF80600ADF802006946054802F060
:10103000FFFA2021034802F0F1FA0121014802F0F1
:10104000D2F93EBD000800407FB505460C4601219F
:10105000082001F029FBADF80850ADF8044000204D
:10106000ADF80A00ADF8060001A90E4802F0E0FA5A
:10107000012211460B4802F0C8FA32208DF8000018
:1010800000208DF8010003208DF8020001208DF86A
:101090000300684600F0B8FF0121024802F0A3F9FE
:1010A0007FBD0000000C004010B586B00446012151
:1010B000880301F019FB0121042001F015FB4FF416
:1010C0000070ADF8140018208DF8170003208DF87B
:1010D000160005A9224800F0CFFA4FF48060ADF861
:1010E000140004208DF8170005A91D4800F0C4FA6B
:1010F00001A802F03CFC01940020ADF80800ADF816
:101100000A00ADF80C000C20ADF80E000020ADF880
:10111000100001A9134802F0B5FB25208DF800004E
:1011200001208DF801008DF802008DF8030068465B
:1011300000F06AFF012240F225510A4802F07DFBCF
:10114000012240F22771074802F077FB0121054890
:1011500002F030FB00200449087006B010BD00000A
:101160000008014000380140CC01002039B1084A94
:101170001268012383401A43054B1A6006E0044AB3
:101180001268012383409A43014B1A6070470000A4
:101190000074004041B1094A12684FF48053834003
:1011A0001A43064B1A6007E0044A12684FF4805352
:1011B00083409A43014B1A6070470000007400405E
:1011C00030B5002200230A4C226840F6FE748440A9
:1011D000A243D1E900452C438D682C43CD6844EAF5
:1011E000050303FA00F42243014C226030BD0000E5
:1011F0000074004008B500220092054A009200F1F8
:101200000802009B1A440092009A116008BD000079
:101210000074004010B50B4800F0DCF880B13A20B3
:1012200000F01F0201219140074A430942F82310B0
:1012300000BF064800F00EF8054803C8FFF7F6FCAB
:1012400010BD00000002001080E200E0000100106C
:10125000D001002000F0805111B10349086001E085
:101260000249486070470000040402400000024048
:1012700021B1026842F00102026004E002684FF608
:10128000FE731A400260704701684FF6FE7211400B
:1012900001600021016041608160C1604B4988426A
:1012A00008D14A490839496841F00F01474A083ACC
:1012B00051608AE045491431884208D143490839D0
:1012C000496841F0F001414A083A51607DE03F49E8
:1012D0002831884208D13D490839496841F4706194
:1012E0003A4A083A516070E038493C31884208D1A6
:1012F00036490839496841F47041344A083A516026
:1013000063E032495031884208D130490839496890
:1013100041F470212D4A083A516056E02B4964315E
:10132000884208D129490839496841F47001274A9F
:10133000083A516049E025497831884208D123496B
:101340000839496841F07061204A083A51603CE030
:101350001F49884206D1011F096841F00F01021F91
:10136000116032E01A491431884208D11849091F26
:10137000096841F0F001164A121F116025E0144976
:101380002831884208D11249091F096841F4706167
:101390000F4A121F116018E00D493C31884208D1F4
:1013A0000B49091F096841F47041094A121F116075
:1013B0000BE007495031884207D10549091F0968E8
:1013C00041F47021024A121F116070470800024068
:1013D0000804024001460020002201F0805313B1AE
:1013E000054B1A6801E0054B1A6802EA01030BB1CC
:1013F000012000E00020704700040240000002408D
:101400001AB103680B43036002E003688B43036077
:10141000704710B50022026847F6F0739A430C6AD1
:101420008B6823430C6923434C6923438C69234312
:10143000CC6923434C6A23438C6A23431A430260DA
:10144000CB6843600B6883604B68C36010BD30B5E8
:101450000346002016E0B3F900509C68645D0C540C
:101460001C88641C24B21C80B3F90040B3F90450FA
:10147000AC4201DB00241C80441C20B2DC88641ECA
:1014800024B2DC80B3F90640002C01DD9042E2DB9F
:1014900030BD704701B504490098086000BF02489C
:1014A00000680028FBD108BDF40100200148008835
:1014B00080B270479000002010B50121034800F071
:1014C00066F9C0F10100C4B2204610BD000C014015
:1014D0002DE9F14F82B00298FEF7F1FF0646374A38
:1014E00000F0FEFA80468946354A4046494600F0FB
:1014F0007DF982468B465046594600F007FDCDE9FE
:101500000001DDE9000101F093FD04460D462D4880
:1015100001680068401C2B4A10602B4800EBC1009A
:1015200030C010460068B0F5167F08DB0020114679
:101530000860264A4FF41671234802F025FA214824
:101540000068012833DD1F48006840F257218842B7
:101550002DDA1C480068801E1B4901EBC000D0E951
:1015600000611A480CC83046FEF7EEFF1FD8154838
:101570000068401E144901EBC000D0E90061134827
:101580000CC83046FEF7F8FF11D800F027F91049D3
:10159000086009680F4A1268881AFEF790FF06462D
:1015A0000D4A02F0DFFA0A4800680A49086020463E
:1015B0002946FEF791FFBDE8FE8F000010020020D3
:1015C0002802002078000020400200208000002037
:1015D0008C000020880000209000002070B5034699
:1015E000002016E00C5CB3F902609D68AC555C8885
:1015F000641C24B25C80B3F90240B3F90450AC42DD
:1016000001DB00245C80441C20B2DC88641C24B212
:10161000DC80B3F90640B3F90450AC4201DA9042E1
:10162000E0DB70BD10B5012004490870012240F2D2
:101630002771034802F001F910BD0000CC01002021
:10164000003801400549096821F01001034A116082
:1016500011460968014311607047000000200240F4
:1016600001460020034A106800F03800084310606B
:1016700070470000002002402DE9F041024600259D
:101680000026002000230024002791F803C00CF05E
:101690000F0591F803C00CF0100CBCF1000F03D043
:1016A00091F802C04CEA050591F800C0BCF1000FAA
:1016B00031D0146800202BE04FF0010C0CFA00F33D
:1016C000B1F800C00CEA03069E4220D183004FF01F
:1016D0000F0C0CFA03F7BC4305FA03FC4CEA0404B4
:1016E00091F803C0BCF1280F06D14FF0010C0CFAA1
:1016F00000FCC2F814C00AE091F803C0BCF1480F26
:1017000005D14FF0010C0CFA00FCC2F810C0401CCF
:101710000828D1D31460B1F800C0BCF1FF0F34DD4C
:10172000546800202EE000F1080C4FF0010808FA80
:101730000CF3B1F800C00CEA03069E4221D18300ED
:101740004FF00F0C0CFA03F7BC4305FA03FC4CEA0C
:10175000040491F803C0BCF1280F05D100F1080C76
:1017600008FA0CF8C2F8148091F803C0BCF1480FD5
:1017700007D100F1080C4FF0010808FA0CF8C2F884
:101780001080401C0828CED35460BDE8F08102468A
:10179000002093680B400BB1012000E0002070474F
:1017A00002460020D3680B400BB1012000E000206E
:1017B000704741617047016170470AB1016100E003
:1017C000416170470148007870470000C101002066
:1017D0000148007870470000C001002001480068FF
:1017E00070470000C401002000BFFEE72DE9F04F64
:1017F0008BB004460D46924600BF4FF0000BDAE96D
:101800000401CDE904013648D0E904890B4640467D
:101810004946049AFEF761FDCDE908013048DAE94E
:101820000283C16880684246CDE90201FEF755FD9A
:1018300022462B46CDE90401FEF74CFDCDE9060119
:10184000DDE90823FEF743FDCAE900012549DAE98D
:101850000483D1E904014246CDE90401FEF73DFDD0
:10186000CDE90801DAE90201CDE900011D48D0E91E
:1018700002890B4640464946009AFEF72EFDCDE907
:1018800004011848DAE9008303C84246CDE90001A3
:10189000FEF723FDCDE90201DDE90423FEF776FC26
:1018A000CDE90601DDE90823FEF770FC06460F4688
:1018B0004FF0020B0BE0ABF101000AEBC000D0E9E6
:1018C00000100AEBCB02C2E90010ABF1010BBBF137
:1018D000000FF0DC304639460BB0BDE8F08F000059
:1018E00060000020480000202DE9F04F8BB0044636
:1018F0000D46924600BF4FF0000BDAE90401CDE936
:1019000004013648D0E904890B4640464946049A0A
:10191000FEF7E3FCCDE908013048DAE90283C1684B
:1019200080684246CDE90201FEF7D7FC22462B46ED
:10193000CDE90401FEF7CEFCCDE90601DDE908237F
:10194000FEF7C5FCCAE900012549DAE90483D1E9BB
:1019500004014246CDE90401FEF7BFFCCDE90801D0
:10196000DAE90201CDE900011D48D0E902890B4600
:1019700040464946009AFEF7B0FCCDE904011848FC
:10198000DAE9008303C84246CDE90001FEF7A5FC71
:10199000CDE90201DDE90423FEF7F8FBCDE90601FC
:1019A000DDE90823FEF7F2FB06460F464FF0020B77
:1019B0000BE0ABF101000AEBC000D0E900100AEB2C
:1019C000CB02C2E90010ABF1010BBBF1000FF0DC60
:1019D000304639460BB0BDE8F08F000048010020CA
:1019E000300100202DE9F04F8BB004460D469246A1
:1019F00000BF4FF0000BDAE90401CDE904013648DD
:101A0000D0E904890B4640464946049AFEF765FC36
:101A1000CDE908013048DAE90283C16880684246AE
:101A2000CDE90201FEF759FC22462B46CDE904011F
:101A3000FEF750FCCDE90601DDE90823FEF747FC7F
:101A4000CAE900012549DAE90483D1E904014246E3
:101A5000CDE90401FEF741FCCDE90801DAE9020114
:101A6000CDE900011D48D0E902890B4640464946B0
:101A7000009AFEF732FCCDE904011848DAE9008348
:101A800003C84246CDE90001FEF727FCCDE902017B
:101A9000DDE90423FEF77AFBCDE90601DDE9082341
:101AA000FEF774FB06460F464FF0020B0BE0ABF15E
:101AB00001000AEBC000D0E900100AEBCB02C2E93A
:101AC0000010ABF1010BBBF1000FF0DC30463946E2
:101AD0000BB0BDE8F08F00001801002000010020CD
:101AE0002DE9F04F8BB004460D46924600BF4FF0F3
:101AF000000BDAE90401CDE904013648D0E9048994
:101B00000B4640464946049AFEF7E7FBCDE908013B
:101B10003048DAE90283C16880684246CDE90201B3
:101B2000FEF7DBFB22462B46CDE90401FEF7D2FB94
:101B3000CDE90601DDE90823FEF7C9FBCAE900018A
:101B40002549DAE90483D1E904014246CDE90401DB
:101B5000FEF7C3FBCDE90801DAE90201CDE9000196
:101B60001D48D0E902890B4640464946009AFEF7D7
:101B7000B4FBCDE904011848DAE9008303C8424602
:101B8000CDE90001FEF7A9FBCDE90201DDE904235F
:101B9000FEF7FCFACDE90601DDE90823FEF7F6FAC7
:101BA00006460F464FF0020B0BE0ABF101000AEBCB
:101BB000C000D0E900100AEBCB02C2E90010ABF183
:101BC000010BBBF1000FF0DC304639460BB0BDE82D
:101BD000F08F0000300000201800002010B54721D1
:101BE00040F2E730FFF7EEF9FEF730FFFEF7EEFFC9
:101BF00010BD10B5FEF7B8FF40F2CF2140F21F3004
:101C0000FFF700FA10BD000010B5FFF74FF81821DC
:101C10000C48FEF7B0FA18210B48FEF7ACFA4FF467
:101C200096510A48FEF7A7FA0020094908600021EA
:101C3000084A11605160084908600849086008496D
:101C4000086010BD10020020280200204002002081
:101C50007800002080000020880000208C000020F8
:101C60009000002010B501F03FFB00F070F800F08C
:101C70001BF84FF4E13000F0F7F800F0E9F800F05D
:101C80000FF800F0B1F8FFF7B4FFFFF7A7FF00F07F
:101C90000FF8FFF7B9FF00F05FF800F085F810BD0E
:101CA00010B5FFF72BF810BD10B5FFF753F810BDB6
:101CB00010B5FFF755F84FF480410948FFF779FD5B
:101CC0000A20FFF7E7FB4FF480410548FFF773FD5B
:101CD0000A20FFF7DFFBFFF7AFF800F0D7F910BDE0
:101CE000000C014000210C4A1170517091700020CD
:101CF00005E000220849C91C0A54411C08B2072803
:101D0000F7DB0021044A5172044A1170044A117031
:101D1000044A1170704700004C750020BD0100207E
:101D2000BE010020BF010020704730B50B460024E3
:101D3000048044808280C4808360002104E0002409
:101D400085686C544C1C21B29142F8DB30BD10B553
:101D5000FFF7D8F810BD000010B54FF461510B48E3
:101D6000FEF709FA00200A4908600021094A1160BB
:101D70005160094A11605160084A1060506008497A
:101D80000860084A1060506010BD000080190020F3
:101D9000B8000020C0000020C8000020D0000020B3
:101DA000D8000020E000002010B5FEF7B1FE182199
:101DB0000548FEF7E0F918210448FEF7DCF9F020A9
:101DC0000349088010BD000000580020185800206A
:101DD000A0010020704710B5FFF784FFFFF7FAFF5E
:101DE000FFF7A2FF10BD000030B5164800684FF4A1
:101DF0007A72B0FBF2F1B1F1807F01D301201DE0D6
:101E000021F07F40401E4FF0E022506150170F221A
:101E1000002807DA13071D0E0B4B00F00F04241FD8
:101E20001D5503E013071C0E084B1C5400BF002077
:101E30004FF0E022906107201061002008B100BF40
:101E4000FEE730BDF801002018ED00E000E400E0FE
:101E500010B5472140F2E730FFF786F8472140F2FE
:101E6000E730FFF7F1F810BD10B5044600F004F8B4
:101E70002046FFF719F910BD10B5002406E0002038
:101E80000949085509490855601C04B2642CF6DB61
:101E9000642205490648FFF748FF642203490548C4
:101EA000FFF743FF10BD000070750020D4750020BF
:101EB000587500206475002070B5044611480088EC
:101EC000401C1049088008460088A04219DB002009
:101ED000088010210C48FFF763FCC0F10100C5B277
:101EE0002A4610210848FFF768FC20210648FFF722
:101EF00057FCC0F10100C5B22A4620210248FFF775
:101F00005CFC70BD14000020001001402DE9F04F72
:101F10008BB004460D464FF0000BDA46304801689E
:101F20000068401C2E4A10602E4800EBC10030C0F3
:101F300010460068052802DB0020114608604FF0BB
:101F4000000B0BE0274800EBCB00D0E900106A46FD
:101F500002EBCB02C2E900100BF1010BBBF1050F44
:101F6000F0DB4FF0000B32E04FF0000A29E0694649
:101F70000AF1010001EBC000D0E90063684600EB04
:101F8000CA003246D0E900814046FEF7F5FA16D283
:101F90006A4602EBCA0203CA6B460AF1010203EB6E
:101FA000C202D2E900326E4606EBCA06C6E900322A
:101FB0006B460AF1010203EBC20603C600BF0AF139
:101FC000010ACBF104005045D1DC0BF1010BBBF150
:101FD000040FC9DBDDE904010BB0BDE8F08F0000A0
:101FE000A80000204015002000BFFEE77047000059
:101FF00000F01F0201219140024A430942F82310D8
:102000007047000080E200E070B5002100230F223D
:10201000C47804B3154C246804F4E064C4F5E064A7
:10202000210AC1F10403CA40447804FA03F1847818
:102030001440214309010E4C0678A155047804F0A0
:102040001F050124AC4005786D11AD0005F1E025B8
:10205000C5F8004109E0047804F01F050124AC40F4
:10206000044D0678761145F8264070BD0CED00E071
:1020700000E400E080E100E002490143024A11600F
:10208000704700000000FA050CED00E070B5002478
:102090000CE0002506E00020074901EBC5010855CA
:1020A000681CC5B2802DF6DB601CC4B2082CF0DBC6
:1020B00000F038F870BD00007C150020F0B5144623
:1020C00000267F2801DC3F2900DDF0BD0B46CF173D
:1020D00001EB5777FF10C7F10707FAB2CF1701EBF3
:1020E0005777FF10A1EBC707FDB2C5F10707012322
:1020F000BB40DEB24CB10A4B03EBC0039B5C3343E5
:10210000074F07EBC007BB5408E0054B03EBC003C8
:102110009B5CB343024F07EBC007BB5400BFD4E73F
:102120007C15002070B500241CE004F1B001C8B299
:10213000002100F0DDF80021084600F0D9F8002168
:10214000102000F0D5F8002508E0084901EBC50192
:10215000085D012100F0CCF8681CC5B2802DF4DBCD
:10216000601CC4B2082CE0DB70BD00007C150020B0
:102170002DE9F05F80460C4615461E46A346A5F1A4
:102180002000C5B200273EE00C2E07D105EB45002C
:102190001F4901EB800010F8079004E01D4800EB98
:1021A000051010F807904FF0000A26E009F08000B3
:1021B00028B1214640460A9AFFF780FF09E00A98B5
:1021C00008B9012000E00020024621464046FFF702
:1021D00075FF4FEA49604FEA1069601CC4B2A4EB76
:1021E0000B00B04205D15C4608F1010000F0FF0889
:1021F00006E00AF1010000F0FF0ABAF1080FD5DB92
:1022000000BF781CC7B2B742BEDBBDE8F09F00003C
:1022100058400008CC4400082DE9FF4F81B0074624
:1022200091461E460E9D4FF0000A002439E0301BF7
:10223000401EC1B20A20FEF7F1FBB9FBF0F00A2103
:10224000B0FBF1F201FB1208BAF1000F16D1701EBB
:10225000A04213DDB8F1000F0ED10120AB4605EB13
:10226000DB71491001FB04710090C8B22B4620229B
:102270000299FFF77DFF12E04FF0010A0120AB4603
:1022800005EBDB71491001FB04710090C8B208F145
:102290003001CAB22B460299FFF76AFF00BF601CEB
:1022A000C4B2B442C3DB05B0BDE8F08FF8B5054653
:1022B0000E46144618E07A2D03DD002506F11000C5
:1022C000C6B23A2E04DD002005460646FFF7DEFEC4
:1022D000012000902278102331462846FFF748FF5E
:1022E00005F10800C5B2641C20780028E3D1F8BDD0
:1022F00070B504460D4625B908211C48FFF759FA68
:1023000005E0012D03D108211848FFF754FA4FF4D6
:1023100080511748FFF74DFA00261BE04FF400519B
:102320001348FFF746FA04F0800028B14FF400414B
:102330000F48FFF740FA04E04FF400410C48FFF764
:1023400038FA4FF400510A48FFF735FA6006040ED8
:10235000701C06B2082EE1DB4FF480510448FFF7F1
:102360002AFA08210148FFF726FA70BD0010014043
:10237000000C014008B523A200210846FFF796FF94
:1023800021A200214020FFF791FF20A21021002070
:10239000FFF78CFF01212048FFF7F9F901280FD141
:1023A000012202211C48FFF708FA1CA21021582024
:1023B000FFF77CFF1BA200212020FFF777FF20E022
:1023C000002202211448FFF7F8F917A21021582023
:1023D000FFF76CFF1648006814280DDB14480068EE
:1023E000FA2809DC1020032300901148002102681C
:1023F0002020FFF711FF04E00AA200212020FFF7B0
:1024000055FF08BD48523A0042504D004543475FD2
:102410004C4541443A000000000C01404E6F6F6291
:102420000000000045727200476F6F6400000000FA
:102430009000002008B522A220210020FFF736FFDF
:1024400020A220214020FFF731FF1FA230210020D1
:10245000FFF72CFF00221F4B1F4903C9FEF774F83A
:1024600006D300221D4B1C4903C9FEF785F80AD28A
:102470001BA230215820FFF719FF1BA2202108467C
:10248000FFF714FF1BE019A230215820FFF70EFFC1
:102490001848006805280DDB16480068642809DC28
:1024A0001020032300901348202102680846FFF7FC
:1024B000B3FE04E00CA220210846FFF7F7FE08BD9A
:1024C00042523A0042504D00524553505F4C4541F4
:1024D000443A000000C08240E00000200070A740A5
:1024E0004E6F6F620000000045727200476F6F64AC
:1024F00000000000D8000020704770B50446002599
:102500002078802803DA0125204600F002F82846CA
:1025100070BD10B50378002208210DE05406220E8C
:10252000445C42EAD412445C44F080044454445C69
:102530001C44E3B24C1EE1B20129EFDC42F08004FE
:10254000447044781C44E3B243F08004447210BDEC
:10255000704700002DE9F84FFFF734F900283FD00D
:10256000FFF794FDFFF706FFFFF764FFFFF7C4FFD7
:10257000FFF7D8FDFEF79AFF044600F02BFA054658
:1025800000F0C8FA06462012164908704C7028124E
:102590008870CD70301208714E71084600F079FCD9
:1025A000FEF78AFF07464FF0000800F0F9F9814670
:1025B000C24600F0A9FA8346002000900A4807703E
:1025C00080F8018080F8029080F803A080F804B0C1
:1025D000054900984871084600F079FCFEF72AFA90
:1025E000BDE8F88F080000200E0000202DE9F04122
:1025F000FFF7EEF800282DD01748007801281FDBE0
:1026000000F062FA0746FEF763FF044600F062FA44
:10261000074600F0E5F9054600F086FA0646200A6E
:102620000E4908704C70280A8870CD70300A087105
:102630004E71084600F069FC00200749087004E06C
:1026400005480078401C04490870FA20FFF734FC64
:10265000FEF7F6F9BDE8F08101000020020000203D
:102660000146C88808B9012070470020FCE7000037
:1026700001460020034A506820F44040084350605F
:10268000704700000010024029B1064A5269024317
:10269000044B5A6104E0034A52698243014B5A6178
:1026A000704700000010024029B1064AD269024377
:1026B000044BDA6104E0034AD2698243014BDA61D8
:1026C000704700000010024029B1064A1269024317
:1026D000044B1A6104E0034A12698243014B1A61F8
:1026E000704700000010024029B1064A9269024377
:1026F000044B9A6104E0034A92698243014B9A6158
:10270000704700000010024029B1064AD268024317
:10271000044BDA6004E0034AD2688243014BDA607A
:1027200070470000001002400F48006840F00100B0
:102730000D490860084640680C4908400A4948604D
:10274000084600680A4908400749086008460068CA
:1027500020F4802008600846406820F4FE004860AD
:102760004FF41F0088607047001002400000FFF81F
:10277000FFFFF6FE30B500210022002400232D4D7E
:102780006D6805F00C0121B1042905D0082923D179
:1027900005E0294D056022E0274D05601FE0254D2D
:1027A0006D6805F47012234D6D6805F480340225C0
:1027B00005EB92421CB9214D554305600BE01D4DC0
:1027C0006D6805F400351DB11C4D5543056002E0F0
:1027D000194D5543056002E0174D056000BF00BF6D
:1027E000144D6D6805F0F0010909154D6B5C056825
:1027F000DD4045600F4D6D6805F4E061090A104D3C
:102800006B5C4568DD4085600A4D6D6805F460517C
:10281000C90A0B4D6B5C4568DD40C560054D6D68B0
:1028200005F44041890B074D6B5CC568B5FBF3F5BA
:10283000056130BD0010024000127A0000093D0021
:10284000DE010020EE01002010B501460022002329
:1028500000204A11012A02D1094C236806E0022A0D
:1028600002D1074C236A01E0054C636A01F01F02A4
:10287000012494401C400CB1012000E0002010BD58
:10288000001002400248406800F00C007047000051
:102890000010024001460020034A506820F0F0007A
:1028A0000843506070470000001002401149096859
:1028B00021F480310F4A11601146096821F480210A
:1028C0001160B0F5803F03D0B0F5802F0ED106E047
:1028D0000849096841F48031064A116007E005495A
:1028E000096841F4A021034A116000E000BF00BF65
:1028F000704700000010024001460020034A506863
:1029000020F4E0600843506070470000001002406F
:1029100001460020034A506820F4605040EAC1009C
:10292000506070470010024001490866704700007F
:102930000000424202460020044B586820F47C10FC
:1029400042EA01031843014B5860704700100240EF
:1029500001460020034A506820F0030008435060FD
:10296000704700000010024038B50020009000249D
:10297000002500BF3120FFF767FF05460098401C87
:1029800000900098B0F5A06F01D0002DF2D031205A
:10299000FFF75AFF08B1012400E00024204638BDAB
:1029A00010B50022084B094903C9FDF7CDFD06D338
:1029B0000022074B054903C9FDF7DEFD01D20024C3
:1029C00000E00124204610BD00C08240E00000204D
:1029D0000070A7400148008880B27047D8000020EE
:1029E0002DE9F041804600BF4046FDF768FD0646F0
:1029F00000F068FB04460D462D4801680068401C45
:102A00002B4A10602B4800EBC10030C01046006814
:102A1000B0F5E16F08DB002011460860264A4FF44C
:102A2000E161244800F0F6FF21480068012838DD04
:102A30001F48006840F20771884232DA1C4800687B
:102A4000801E1C4901EBC000D0E900611A480CC887
:102A50003046FDF779FD24D815480068401E154919
:102A600001EBC000D0E9006113480CC83046FDF707
:102A700083FD16D8FEF7B2FE0646FDF720FD0F4A8D
:102A800003C20F480D490CC803C9FDF720FC0646D8
:102A90000C4A01F0D1F80948D0E90010084AC2E90F
:102AA000001020462946FDF736FD80B2BDE8F081D2
:102AB000B800002080190020C0000020D0000020B5
:102AC000C8000020D800002001480088704700009E
:102AD000D80100200148408870470000D80100203C
:102AE0000148808870470000D801002070B5044676
:102AF0000025012221460348FEF7A9FCC5B228465D
:102B000070BD000058750020014800787047000033
:102B1000A801002010B5034903C9FDF7FCFC80B2F1
:102B200010BD000098010020F0B58FB000200A9081
:102B30000B900C900D9006900790089009900290D1
:102B400003900490059089480068FDF7A7FC0446AF
:102B5000874AFEF7C9FECDE90A0186480068FDF7FD
:102B60009DFC0446844AFEF7BFFECDE90C01834A72
:102B7000DDE90A311846FEF735FFCDE90601804A46
:102B8000DDE90C311846FEF72DFFCDE90801DDE93E
:102B90000621104600F042FBCDE90201DDE90821E3
:102BA000104600F0D9FACDE90401764A764BDDE90A
:102BB00002101B6802EBC302C2E90010734A724B99
:102BC000DDE904101B6802EBC302C2E90010704A81
:102BD0006D4BDDE904101B6802EBC302C2E9001073
:102BE00069480068401C6849086008460068B0F5FC
:102BF000967F73DB0020086066480068002805DDCA
:102C000064480068401E6349086067E062486349A1
:102C10004FF496735E4ACDE900105C495948FDF7C0
:102C200059FE5F485F49CDE900105B485B490CC81D
:102C300003C901F07FF800225B4B584903C9FDF737
:102C40009BFC0AD20022584B534903C9FDF794FC60
:102C500003D201205549087002E000205349087052
:102C60000022514B4D4903C9FDF76EFC19D2504863
:102C70000088B0F5FA7F14DA4D48008828304C49B6
:102C8000088008460088B0F5FA7F02DD4FF4FA703C
:102C9000088047480088FDF715FE01203D4908607F
:102CA0001CE00022434B3D4903C9FDF765FC15D2EA
:102CB0003F480088642811DD3D48008828383C4999
:102CC000088008460088642801DA642008803848B3
:102CD0000088FDF7F7FD01202E4908602A480068AA
:102CE00001283CDD28480068B0F5957F37DC264890
:102CF0000068801E264901EBC000D0E900612E4823
:102D00000CC83046FDF7E3FA044600221346FDF7EF
:102D10001BFC24D81C480068401E1D4901EBC00064
:102D2000D0E9006124480CC83046FDF7D0FA0446CB
:102D300000221346FDF720FC11D8FEF74FFD1F4976
:102D4000086009681E4A1268881AFDF7A7FB044646
:102D50001C4A00F085FF1948006819490860DDE940
:102D600004211046FDF7B8FB0FB0F0BDF8000020BD
:102D700030580020FC000020485800200058002057
:102D800018580020C061002060010020206B002046
:102D900060580020A401002088010020800100204C
:102DA000980100209001002000003440A80100207C
:102DB000A0010020000054406801002074010020A0
:102DC000700100207801002010B526490978481CC0
:102DD000C11700EB5171C910A0EBC101214A11705C
:102DE0001046007830B102280FD004281CD00628E5
:102DF00034D124E0012220211B48FEF7DEFC002212
:102E000040211948FEF7D9FC29E0FFF769FE174970
:102E10000860002220211448FEF7CFFC0022402148
:102E20001148FEF7CAFC1AE0002220210E48FEF7E6
:102E3000C4FC012240210C48FEF7BFFC0FE0FFF765
:102E40004FFE0B490860002220210748FEF7B5FC21
:102E5000002240210448FEF7B0FC00E000BF00BFA4
:102E600010BD0000BC01002000080140F800002057
:102E7000FC000020704770B5044600252046FFF78F
:102E80003CFB0546002D03DD0A21204600F020FE14
:102E900070BD3EB5044611208DF8000002208DF86B
:102EA000020020788DF8030061788DF80410A17875
:102EB0008DF80510E1788DF8061021798DF807104E
:102EC00061798DF808106846FFF7D5FF3EBD3EB525
:102ED000044612208DF8000002208DF802002078B0
:102EE0008DF8030061788DF80410A1788DF8051035
:102EF000E1788DF8061021798DF8071061798DF849
:102F000008106846FFF7B7FF3EBD3EB504461020E7
:102F10008DF8000002208DF8020020788DF8030063
:102F200061788DF80410A1788DF80510E1788DF89E
:102F3000061021798DF8071061798DF80810684620
:102F4000FFF799FF3EBD10B500F002F810BD00007C
:102F50000CB50020019000903348006840F48030A8
:102F60003149086000BF3048006800F4003000902C
:102F70000198401C0190009818B90198B0F5A06F15
:102F8000F1D12948006800F4003010B10120009010
:102F900001E0002000900098012843D123480068F8
:102FA00040F01000214908600846006820F0030046
:102FB00008600846006840F0020008601A4840684F
:102FC000194948600846406848600846406840F42F
:102FD000806048600846406820F47C1048600846DD
:102FE000406840F4E81048600846006840F080708F
:102FF000086000BF0C48006800F000700028F9D09D
:103000000948406820F003000749486008464068C6
:1030100040F00200486000BF0348406800F00C0028
:103020000828F9D10CBD0000001002400020024029
:103030002DE9F04104460D461E481F49096800EB82
:10304000C100D0E9006332461C4903C9FDF73FF9CE
:103050001A4A03C217481849096800EBC10030C07A
:1030600016480CC820462946FDF790F8134A03C2BB
:1030700011480068401C104908600846006808288C
:1030800001DB002008600E480068082804DA0C48BC
:103090000068401C0A49086009480068FDF7FEF90D
:1030A000064632460B46054903C9FDF788F9BDE8D7
:1030B000F08100000015002094000020A0000020F6
:1030C000980000202DE9F04104460D461E481F4996
:1030D000096800EBC100D0E9006332461C4903C90E
:1030E000FDF7F5F81A4A03C217481849096800EBBA
:1030F000C10030C016480CC820462946FDF746F8E6
:10310000134A03C211480068401C10490860084671
:103110000068C82801DB002008600E480068C82845
:1031200004DA0C480068401C0A4908600948006835
:10313000FDF7B4F9064632460B46054903C9FDF7CB
:103140003EF9BDE8F0810000C0510020E8000020F9
:10315000F0000020EC0000202DE9FC5F04460D4645
:103160004FF0000AD346294800680A280EDA28489A
:103170002649096800EBC10030C024480068401CA3
:103180002249086020462946BDE8FC9F4FF0000A0E
:103190000DE01F490AF1010001EBC000D0E9001069
:1031A0001B4A02EBCA02C2E900100AF1010ABAF195
:1031B000090FEEDB1648C0E912454FF0000A13E094
:1031C0005846FDF76BF98046114800EBCA00D0E97C
:1031D000006332464046FCF7D9FFCDE90001FDF718
:1031E0007BF983460AF1010ABAF10A0FE8DB584677
:1031F000FDF754F906460022064BFDF76EF88046AF
:103200000022054BFDF7DBF8BEE70000B00100200F
:10321000E87400200000F03F000024402DE9FC5F2E
:1032200004460D464FF0000AD346294800680A2894
:103230000EDA28482649096800EBC10030C024484E
:103240000068401C2249086020462946BDE8FC9FD2
:103250004FF0000A0DE01F490AF1010001EBC00028
:10326000D0E900101B4A02EBCA02C2E900100AF1C1
:10327000010ABAF1090FEEDB1648C0E912454FF01A
:10328000000A13E05846FDF709F98046114800EBA3
:10329000CA00D0E9006332464046FCF777FFCDE92B
:1032A0000001FDF719F983460AF1010ABAF10A0F84
:1032B000E8DB5846FDF7F2F806460022064BFDF71C
:1032C0000CF880460022054BFDF779F8BEE70000B8
:1032D000AC010020987400200000F03F0000244062
:1032E00010B500F0F7F910BD10B51348006840F0B4
:1032F00001001149086008464068104908400E491D
:103300004860084600680E4908400B4908600846B6
:10331000006820F4802008600846406820F4FE0021
:1033200048604FF41F008860FFF70DFE4FF000600B
:103330000449086010BD0000001002400000FFF8C2
:10334000FFFFF6FE08ED00E010B50121880700F050
:103350004BF9012803D10121800700F041F80B4807
:103360000068401C09490860FFF72EFD08480088E6
:10337000401C0749088008460088022804DB00201A
:10338000088001200349087010BD0000C40100201E
:10339000C8010020C001002010B501210D4800F037
:1033A00023F9012803D101210A4800F019F80A483D
:1033B0000088401C00B2084908800846B0F90000A7
:1033C000B0F57A7F04DB00200880012003490870F3
:1033D00010BD0000000C0040CA010020C101002007
:1033E000CA430282704721B1028842F00102028082
:1033F00004E002884FF6FE731A4002807047000016
:1034000010B504466848844208D10121C014FFF772
:103410007BF90021E014FFF777F9C4E0B4F1804FA5
:1034200008D101210846FFF74FF900210120FFF7DD
:103430004BF9B8E05D48844208D101210220FFF732
:1034400043F900210220FFF73FF9ACE058488442DD
:1034500008D101210420FFF737F900210420FFF7EC
:1034600033F9A0E05348844208D101210820FFF736
:103470002BF900210820FFF727F994E04E488442F9
:1034800008D101211020FFF71FF900211020FFF7BC
:103490001BF988E04948844208D101212020FFF728
:1034A00013F900212020FFF70FF97CE04448844203
:1034B00008D101214014FFF727F900216014FFF71C
:1034C00023F970E03F48844209D10121C804FFF785
:1034D0001BF900214FF40020FFF716F963E03A488A
:1034E000844209D101210805FFF70EF900214FF4AC
:1034F0008010FFF709F956E03448844209D10121D0
:103500004805FFF701F900214FF40010FFF7FCF820
:1035100049E02F48844208D101214020FFF7D4F828
:1035200000214020FFF7D0F83DE02A48844208D12E
:1035300001218020FFF7C8F800218020FFF7C4F8A0
:1035400031E02548844208D101218015FFF7BCF8FD
:103550000021A015FFF7B8F825E02048844209D1E2
:1035600001210804FFF7D0F800214FF48030FFF765
:10357000CBF818E01A48844209D101214804FFF72A
:10358000C3F800214FF40030FFF7BEF80BE01548F8
:10359000844208D101218804FFF7B6F800214FF4D6
:1035A0008020FFF7B1F810BD002C0140000400405E
:1035B00000080040000C00400010004000140040D3
:1035C00000340140004C01400050014000540140D3
:1035D00000180040001C0040002000400040014056
:1035E000004401400048014030B50246002000235D
:1035F0000024158A05EA0103958905EA010413B13F
:103600000CB1012000E0002030BD1AB183890B43CA
:10361000838102E083898B438381704782884FF6E0
:103620008F731A40828082880A438280704700002C
:10363000002202881D4B98420ED01D4B98420BD0A1
:10364000B0F1804F08D01B4B984205D01A4B9842DE
:1036500002D01A4B984204D14FF68F731A404B8810
:103660001A43174B984207D0164B984204D04FF696
:10367000FF431A40CB881A4302808B8883850B88CE
:1036800003850A4B98420BD0094B984208D00E4B49
:10369000984205D00D4B984202D00D4B984201D173
:1036A0000B7A03860123838270470000002C0140BF
:1036B000003401400004004000080040000C0040BD
:1036C0000010004000140040004001400044014050
:1036D000004801400448006820B103480068401ECB
:1036E0000149086070470000F401002008B500207F
:1036F000009040F22551204800F075F858B125207F
:10370000FEF776FC1C4800F029F9C0B200909DF845
:10371000000000F0D1F90821174800F057F80128FF
:1037200006D10821144800F02DF8134800F016F9CE
:1037300040F22771104800F056F8E0B140F22771CE
:103740000D4800F028F82520FEF752FC6846FFF7E8
:10375000CDF99DF80010084800F005F90748FEF77C
:103760007FFF40B1002006490870002240F2277117
:10377000014800F062F808BD00380140587500208B
:10378000CC01002001F40072B2F5007F00D100BF2F
:10379000CA430280704710B50022002340F66A1425
:1037A000A14200D100BF0A1201249440A3B2DC431D
:1037B000048010BD21B1828942F40052828104E06C
:1037C00082894DF6FF731A408281704702460020BD
:1037D000B1F5007F00D100BF13880B400BB1012071
:1037E00000E00020704770B5024600240023002549
:1037F000002040F66A16B14200D100BFC1F3421565
:1038000001F01F03012606FA03F3012D02D1968968
:10381000334006E0022D02D1168A334001E0968A39
:1038200033400C12012606FA04F41688344013B112
:103830000CB1012000E0002070BDF0B5034600246B
:1038400000260025002040F66A17B94200D100BFCB
:103850001846C1F3421401F01F06012707FA06F5C6
:10386000012C01D10C3004E0022C01D1103000E019
:1038700014301AB107682F43076002E00768AF43AE
:103880000760F0BD2DE9F04786B005460E460024DE
:10389000A24600BFA1460027B08900B100BF2F4655
:1038A0002C8A4CF6FF700440F08804432C82AC89CB
:1038B0004EF6F3100440B0883189084371890843FB
:1038C0000443AC81AC8A4FF6FF400440B089044306
:1038D000AC8201A8FEF74EFF1F48874202D1DDF8F7
:1038E00010A001E0DDF80CA0A88900F4004040B170
:1038F0000AEBCA0000EB0A1031684900B0FBF1F88E
:1039000007E00AEBCA0000EB0A1031688900B0FB3F
:10391000F1F86420B8FBF0F004012009642101FBF8
:103920001089A88900F4004040B1322000EBC900A2
:10393000B0FBF1F000F00700044308E0322000EB98
:1039400009106421B0FBF1F000F00F0004432C815A
:1039500006B0BDE8F08700000038014001468888C5
:10396000C0F308007047C1F30802828070474FF42B
:103970001651016000218180C18001810C214181AB
:1039800000218181704700002DE9FF5F81468A4652
:10399000934600210D460E460027DFF87080012473
:1039A0001BE009EBC40003C82A463346CDE90201F7
:1039B000FCF7E2FD02D209EBC40060C809EBC401C8
:1039C00003C93A464346CDE90201FCF7BDFD03D2E7
:1039D00009EBC400D0E90078641C5445E1DB3A46A9
:1039E000434628463146FCF772FC0022084BCDE9DD
:1039F0000001FCF7E4FC2A463346CDE90201FCF75E
:103A000069FCCBE90001BDE8FF9F000000FEAF406C
:103A1000000010402DE9FF5F81468A469346002151
:103A20000D460E460027DFF8808001241BE009EBDD
:103A3000C40003C82A463346CDE90201FCF79CFDC9
:103A400002D209EBC40060C809EBC40103C93A46BD
:103A50004346CDE90201FCF777FD03D209EBC40030
:103A6000D0E90078641C5445E1DB3A4643462846D9
:103A70003146FCF72CFC0D4A03C23A464346284621
:103A80003146FCF724FC0022094BCDE90001FCF78C
:103A900096FC2A463346CDE90201FCF71BFCCBE934
:103AA0000001BDE8FF9F000000FEAF40E0000020E5
:103AB0000000104000BFFEE731B500240122694636
:103AC0000248FDF78BFDC4B2204638BD6475002066
:103AD00070B504460D4600262A4621460648FDF7E5
:103AE0007DFDC6B2642E04DA0448007808B9FDF7FB
:103AF00099FD304670BD000058750020CC010020B3
:103B000002E008C8121F08C1002AFAD170477047A6
:103B1000002001E001C1121F002AFBD1704730B51F
:103B2000024600231AE0002013E052F82050441C03
:103B300052F82440A5420BDD32F82050ACB2451CAF
:103B400052F8255042F82050451C42F8254000BF4D
:103B5000401CCC1A641E8442E7DC5B1C4C1E9C4259
:103B6000E1DC30BD2DE9F04F85B005460E469246AA
:103B70002A46334600202C49FCF721FC0746FCF777
:103B8000ABFC834629482A49096840F821B02848F7
:103B90000068401C052190FBF1F201FB1200244952
:103BA000086024480068052804DA22480068401CA0
:103BB00020490860002405E01C4850F824004DF816
:103BC0002400641C1B4800688442F5DB002420E0CC
:103BD0004FF0000916E05DF8291009F101005DF8C9
:103BE000200081420CDD5DF8290009F101015DF83A
:103BF00021104DF8291009F101014DF8210000BFF5
:103C000009F101090B480068401E001B4845E2DC31
:103C1000641C08480068401EA042D9DC0298CAF81B
:103C2000000005B0BDE8F08F004CED4068150020A5
:103C3000AC000020B00000202DE9F04105460E4602
:103C400014462A46334600200449FCF7B8FB0746D1
:103C5000FCF742FC2060BDE8F0810000004CED4024
:103C60002DE9F04F85B005460E4692462A4633466A
:103C700000202C49FCF7A3FB0746FCF72DFC8346EC
:103C800029482A49096840F821B028480068401CA2
:103C9000052190FBF1F201FB120024490860244841
:103CA0000068052804DA22480068401C20490860A2
:103CB000002405E01C4850F824004DF82400641C42
:103CC0001B4800688442F5DB002420E04FF0000927
:103CD00016E05DF8291009F101005DF8200081422D
:103CE0000CDD5DF8290009F101015DF821104DF8A6
:103CF000291009F101014DF8210000BF09F1010966
:103D00000B480068401E001B4845E2DC641C084864
:103D10000068401EA042D9DC0298CAF8000005B035
:103D2000BDE8F08F004CED4038750020B401002054
:103D3000B80100202DE9F04F87B005460E46174622
:103D40009846DDE910B90024A246142102A8FCF728
:103D500012FA3A46434628463146FCF730FBCBE997
:103D60000001DBE9000100229B4BCDE90001FCF7DB
:103D7000B4FACBE9000100BF08E098490AF101005C
:103D800051F8200041F82A000AF1010ABAF1040FA3
:103D9000F3DBDBE900211046FCF79EFB8F4908614D
:103DA0004FF0000A07E08D4850F82A0002A941F8B8
:103DB0002A000AF1010ABAF1050FF4DB052102A875
:103DC000FFF7ADFE049CB4F5E17F04DC00218448DC
:103DD000C9E90010E2E0B4F5E17F07DDB4F5EB7F5F
:103DE00004DC00217F48C9E90010D7E0B4F5EB7F7F
:103DF00007DDB4F5FF7F04DC00217B48C9E9001032
:103E0000CCE0B4F5FF7F07DDB4F5077F04DC0021CB
:103E10007648C9E90010C1E0B4F5077F07DDB4F5C5
:103E2000117F04DC00217248C9E90010B6E0B4F546
:103E3000117F07DDB4F5167F04DC00216D48C9E968
:103E40000010ABE0B4F5167F07DDB4F51B7F04DC92
:103E500000206949C9E90001A0E0B4F51B7F07DD36
:103E6000B4F5207F04DC00216448C9E9001095E026
:103E7000B4F5207F07DDB4F52A7F04DC002060491B
:103E8000C9E900018AE0B4F52A7F07DDB4F5347F83
:103E900004DC00215B48C9E900107FE0B4F5347F01
:103EA00007DDB4F5487F04DC00205749C9E900016B
:103EB00074E0B4F5487F07DDB4F56B7F04DC0020C7
:103EC0005249C9E9000169E0B4F56B7F07DDB4F53B
:103ED000757F04DC00214E48C9E900105EE0B4F5AE
:103EE000757F07DDB4F57F7F04DC00214948C9E90F
:103EF000001053E0B4F57F7F08DD40F22440844297
:103F000004DC00204449C9E9000147E040F22540B3
:103F1000844207DBB4F5876F04DC00213F48C9E920
:103F200000103BE0B4F5876F08DD40F24C4084425E
:103F300004DC00203A49C9E900012FE040F24D407D
:103F4000844207DBB4F58C6F04DC00203549C9E9F5
:103F5000000123E0B4F58C6F08DD40F27E4084421E
:103F600004DC00213048C9E9001017E040F27F402E
:103F7000844208DB40F29240844204DC00212B485A
:103F8000C9E900100AE040F29340844206DBB4F530
:103F9000966F03DC00202649C9E90001D9E9000138
:103FA0000022244BCDE90001FCF7E6FA04D20021FF
:103FB0002048C9E900100CE0D9E9000100221E4B9D
:103FC000CDE90001FCF7C0FA03D200211A48C9E983
:103FD000001007B0BDE8F08F00408F4080740020D3
:103FE00000C05840008058400040584000005840F1
:103FF00000C05740008057400040574000005740E5
:1040000000C05640008056400040564000005640D8
:1040100000C05540008055400040554000005540CC
:1040200000C05440008054400040544000005440C0
:1040300000C053400000594000805140FDF712FE7F
:10404000FDF7C9FE4FF49670FDF724FA03E0FEF782
:10405000CDFAFEF77FFAFAE700000000000000004A
:1040600000000000000000003F40000000000000D1
:1040700000003000400030004000000009000BC08C
:104080003D000BC03D00090018C024407FE02240E5
:1040900031800000180024C01B000D8032400180D8
:1040A00003801C4027401C80074000401000600037
:1040B00000000000000000000000000000001F8061
:1040C000204040200000402020401F8000000000D1
:1040D000090006001F80060009000000040004001B
:1040E0003F80040004000000001000600000000099
:1040F00000000000040004000400040004000000AC
:10410000000000400000000000000000002001C08E
:1041100006003800400000001F8020402040204062
:104120001F800000000010403FC000400000000061
:1041300018C0214022402440184000001080204038
:10414000244024401B80000002000D0011003FC0ED
:10415000014000003C802440244024402380000093
:104160001F802440244034400380000030002000A1
:1041700027C03800200000001B8024402440244039
:104180001B8000001C0022C0224022401F80000033
:1041900000000000084000000000000000000000D7
:1041A0000460000000000000000004000A0011008C
:1041B00020804040090009000900090009000000B2
:1041C00000004040208011000A0004001800200078
:1041D00023402400180000001F8020402740294071
:1041E0001F400000004007C039000F0001C0004020
:1041F00020403FC0244024401B8000001F802040FE
:10420000204020403080000020403FC0204020401F
:104210001F80000020403FC024402E4030C00000DE
:1042200020403FC024402E00300000000F001080CE
:10423000204022403380020020403FC004000400A0
:104240003FC02040204020403FC020402040000090
:104250000060202020203FC02000200020403FC0E0
:1042600024400B0030C0204020403FC02040004090
:10427000004000C03FC03C0003C03C003FC0000005
:1042800020403FC00C4023003FC020001F80204042
:10429000204020401F80000020403FC024402400D8
:1042A000180000001F802140214020E01FA00000D6
:1042B00020403FC02440260019C0004018C02440C0
:1042C0002440224031800000300020403FC0204088
:1042D0003000000020003F80004000403F80200070
:1042E00020003E0001C0070038002000380007C051
:1042F0003C0007C038000000204039C0060039C02B
:10430000204000002000384007C038402000000056
:10431000304021C02640384020C00000000000008E
:104320007FE0402040200000000070000C0003806F
:10433000004000000000402040207FE0000000001E
:1043400000002000400020000000000000100010CD
:1043500000100010001000100000000040000000DD
:1043600000000000000002800540054003C000403E
:1043700020003FC004400440038000000000038090
:104380000440044006400000000003800440244034
:104390003FC000400000038005400540034000008E
:1043A000000004401FC0244024402000000002E020
:1043B000055005500650042020403FC00440040032
:1043C00003C000400000044027C00040000000007F
:1043D00000100010041027E00000000020403FC043
:1043E0000140070004C00440204020403FC000407E
:1043F0000040000007C0040007C0040003C0000024
:10440000044007C00440040003C0004000000380D3
:104410000440044003800000041007F004500440EE
:1044200003800000000003800440045007F00010E7
:10443000044007C0024004000400000000000640E1
:104440000540054004C00000000004001F80044037
:1044500000400000040007800040044007C0004006
:104460000400070004C0018006000400060001C02B
:10447000070001C006000000044006C0010006C09D
:10448000044000000410071004E00180060004004E
:104490000000044005C00640044000000000000089
:1044A00004007BE040200000000000000000FFF05E
:1044B00000000000000040207BE00400000000003D
:1044C000400080004000200020004000000000006C
:1044D00000000000000000000000000000000000DC
:1044E00000001FCC000C00000000000000000800CD
:1044F000300060000800300060000000022003FC73
:104500001E20022003FC1E200220000000000E18C6
:1045100011043FFF10840C78000000000F0010848D
:104520000F3800C0077818840078000000780F84E6
:1045300010C411240E9800E40084000808006800EC
:1045400070000000000000000000000000000000FB
:10455000000007E01818200440020000000040029C
:104560002004181807E0000000000000024002408C
:1045700001800FF0018002400240000000800080B6
:1045800000800FF800800080008000000001000D16
:10459000000E00000000000000000000000000808D
:1045A0000080008000800080008000800000000CFF
:1045B000000C0000000000000000000000000006E9
:1045C000001800600180060018002000000007F0BD
:1045D000080810041004080807F000000000080490
:1045E00008041FFC000400040000000000000E0C82
:1045F00010141024104411840E0C000000000C183C
:1046000010041104110412880C700000000000E076
:104610000320042408241FFC0024000000001F982D
:10462000108411041104108810700000000007F0BD
:1046300008881104110418880070000000001C0094
:10464000100010FC13001C001000000000000E38C9
:1046500011441084108411440E380000000007003B
:10466000088C10441044088807F000000000000087
:104670000000030C030C000000000000000000001C
:1046800000010106000000000000000000000080A2
:10469000014002200410080810040000022002203B
:1046A000022002200220022002200000000010044C
:1046B00008080410022001400080000000000E00E5
:1046C0001200100C106C10800F00000003E00C189A
:1046D00013E4142417C4082807D000000004003C89
:1046E00003C41C40074000E4001C000410041FFC2D
:1046F0001104110411040E880070000003E00C186E
:1047000010041004100410081C10000010041FFCFA
:10471000100410041004080807F0000010041FFC27
:104720001104110417C410040818000010041FFC21
:104730001104110017C010000800000003E00C185D
:104740001004100410441C780040000010041FFCEA
:1047500010840080008010841FFC100400001004EE
:1047600010041FFC100410040000000000030001EE
:10477000100110011FFE10001000000010041FFCAB
:10478000110403801464181C1004000010041FFCA2
:104790001004000400040004000C000010041FFCBE
:1047A0001F0000FC1F001FFC1004000010041FFC71
:1047B0000C04030000E010181FFC100007F00808AC
:1047C000100410041004080807F0000010041FFC77
:1047D00010841080108010800F00000007F008186F
:1047E00010241024101C080A07F2000010041FFCFB
:1047F0001104110011C011300E0C000400000E1C39
:1048000011041084108410441C380000180010009B
:1048100010041FFC100410001800000010001FF806
:1048200010040004000410041FF8100010001E0003
:1048300011E0001C007013801C0010001FC0103C11
:1048400000E01F0000E0103C1FC000001004180C26
:10485000163401C001C01634180C100410001C00DE
:10486000130400FC13041C00100000000804101CBA
:104870001064108413041C041018000000000000D1
:1048800000007FFE400240024002000000003000B5
:104890000C0003800060001C0003000000004002C8
:1048A000400240027FFE0000000000000000000007
:1048B00020004000400040002000000000010001F6
:1048C00000010001000100010001000100004000A2
:1048D00040002000000000000000000000000098E0
:1048E000012401440144014400FC000410001FFCA9
:1048F00000880104010400880070000000000070BE
:104900000088010401040104008800000000007018
:1049100000880104010411081FFC0004000000F8D5
:10492000014401440144014400C8000000000104A6
:1049300001040FFC1104110411001800000000D63E
:1049400001290129012901C90106000010041FFCE9
:10495000008401000100010400FC000400000104C7
:10496000190419FC0004000400000000000000030A
:1049700000010101190119FE0000000010041FFCD4
:104980000024004001B4010C0104000000001004E8
:1049900010041FFC0004000400000000010401FCDE
:1049A0000104010001FC0104010000FC010401FC00
:1049B000008401000100010400FC0004000000F874
:1049C000010401040104010400F80000010101FFD9
:1049D00000850104010400880070000000000070E0
:1049E000008801040104010501FF00010104010424
:1049F00001FC00840104010001800000000000CCE3
:104A00000124012401240124019800000000010078
:104A1000010007F80104010400000000010001F892
:104A2000000400040004010801FC000401000180EE
:104A30000170000C001001600180010001F0010C08
:104A4000003001C00030010C01F001000000010441
:104A5000018C00740170018C0104000001010181CE
:104A60000171000E00180160018001000000018446
:104A7000010C013401440184010C0000000000001D
:104A80000000000001003EFC400240020000000067
:104A900000000000FFFF00000000000000004002D6
:104AA00040023EFC01000000000000000000600029
:104AB000800080004000400020002000DC4A000808
:104AC000000000200C020000E8060008884B0008E7
:104AD0000C0200202C780000103B00080217306800
:104AE000111BF67B629D2AE83FE50AEF7211DFDDBC
:104AF000BF10617AF018681935ECF7C43A55E03FF9
:104B00003997E2AAB26FEF3F451152B7B36FFFBFBB
:104B10001069305810804754A86E6EFFBF13B69FBF
:104B20008CF1E1EE180182380A864B287E6D027501
:104B30003F6F086B853F1069B8381A57E106D752A6
:104B400099FCBF3105FF19B9DAE93F41246A081D14
:104B5000A9EF3F38086BFFBF106930680F3E6E72D7
:104B600012A7A8FFBFA4B4C3FC255318017C2D01D4
:104B70000203040470090607080902040608ACA22F
:084B80004A0422291E00000076
:0400000508000131BD
:00000001FF
